{
  "contractName": "SSSDapp",
  "abi": [
    {
      "constant": true,
      "inputs": [
        {
          "name": "",
          "type": "uint256"
        }
      ],
      "name": "userProfiles",
      "outputs": [
        {
          "name": "",
          "type": "address"
        }
      ],
      "payable": false,
      "stateMutability": "view",
      "type": "function",
      "signature": "0x18d4a12d"
    },
    {
      "constant": true,
      "inputs": [
        {
          "name": "",
          "type": "address"
        }
      ],
      "name": "Profiles",
      "outputs": [
        {
          "name": "userName",
          "type": "string"
        },
        {
          "name": "email",
          "type": "string"
        },
        {
          "name": "password",
          "type": "string"
        }
      ],
      "payable": false,
      "stateMutability": "view",
      "type": "function",
      "signature": "0x45ffb23c"
    },
    {
      "constant": false,
      "inputs": [
        {
          "name": "_ipfsHash",
          "type": "string"
        }
      ],
      "name": "set",
      "outputs": [],
      "payable": false,
      "stateMutability": "nonpayable",
      "type": "function",
      "signature": "0x4ed3885e"
    },
    {
      "constant": true,
      "inputs": [],
      "name": "get",
      "outputs": [
        {
          "name": "",
          "type": "string"
        }
      ],
      "payable": false,
      "stateMutability": "view",
      "type": "function",
      "signature": "0x6d4ce63c"
    },
    {
      "constant": false,
      "inputs": [
        {
          "name": "userAddress",
          "type": "address"
        },
        {
          "name": "_userName",
          "type": "string"
        },
        {
          "name": "_email",
          "type": "string"
        },
        {
          "name": "_password",
          "type": "string"
        }
      ],
      "name": "registerUser",
      "outputs": [
        {
          "name": "",
          "type": "address"
        },
        {
          "name": "",
          "type": "string"
        }
      ],
      "payable": false,
      "stateMutability": "nonpayable",
      "type": "function",
      "signature": "0xfe69c296"
    },
    {
      "constant": false,
      "inputs": [
        {
          "name": "userAddress",
          "type": "address"
        },
        {
          "name": "_Hash",
          "type": "string"
        }
      ],
      "name": "uploadFile",
      "outputs": [],
      "payable": false,
      "stateMutability": "nonpayable",
      "type": "function",
      "signature": "0x67f72fa9"
    },
    {
      "constant": false,
      "inputs": [
        {
          "name": "userAddress",
          "type": "address"
        },
        {
          "name": "_Hash",
          "type": "string"
        }
      ],
      "name": "shareFile",
      "outputs": [],
      "payable": false,
      "stateMutability": "nonpayable",
      "type": "function",
      "signature": "0xdfa36d5b"
    },
    {
      "constant": true,
      "inputs": [],
      "name": "getUsersNumber",
      "outputs": [
        {
          "name": "",
          "type": "address[]"
        }
      ],
      "payable": false,
      "stateMutability": "view",
      "type": "function",
      "signature": "0x7fe91239"
    },
    {
      "constant": true,
      "inputs": [
        {
          "name": "userAddress",
          "type": "address"
        }
      ],
      "name": "getUser",
      "outputs": [
        {
          "name": "",
          "type": "address"
        },
        {
          "name": "",
          "type": "string"
        },
        {
          "name": "",
          "type": "string"
        },
        {
          "name": "",
          "type": "string[]"
        },
        {
          "name": "",
          "type": "string[]"
        }
      ],
      "payable": false,
      "stateMutability": "view",
      "type": "function",
      "signature": "0x6f77926b"
    },
    {
      "constant": false,
      "inputs": [
        {
          "name": "userAddress",
          "type": "address"
        },
        {
          "name": "_userName",
          "type": "string"
        },
        {
          "name": "_password",
          "type": "string"
        }
      ],
      "name": "signIn",
      "outputs": [
        {
          "name": "",
          "type": "string"
        }
      ],
      "payable": false,
      "stateMutability": "nonpayable",
      "type": "function",
      "signature": "0xeef0d8d7"
    },
    {
      "constant": true,
      "inputs": [
        {
          "name": "userAdress",
          "type": "address"
        }
      ],
      "name": "getMyFiles",
      "outputs": [
        {
          "name": "",
          "type": "string[]"
        }
      ],
      "payable": false,
      "stateMutability": "view",
      "type": "function",
      "signature": "0x9ad9bd77"
    },
    {
      "constant": true,
      "inputs": [
        {
          "name": "userAdress",
          "type": "address"
        }
      ],
      "name": "getSharedFiles",
      "outputs": [
        {
          "name": "",
          "type": "string[]"
        }
      ],
      "payable": false,
      "stateMutability": "view",
      "type": "function",
      "signature": "0x1d152422"
    }
  ],
  "bytecode": "0x608060405234801561001057600080fd5b50611a47806100206000396000f3fe6080604052600436106100ba576000357c0100000000000000000000000000000000000000000000000000000000900463ffffffff16806318d4a12d146100bf5780631d152422146100fc57806345ffb23c146101395780634ed3885e1461017857806367f72fa9146101a15780636d4ce63c146101ca5780636f77926b146101f55780637fe91239146102365780639ad9bd7714610261578063dfa36d5b1461029e578063eef0d8d7146102c7578063fe69c29614610304575b600080fd5b3480156100cb57600080fd5b506100e660048036036100e191908101906115da565b610342565b6040516100f39190611747565b60405180910390f35b34801561010857600080fd5b50610123600480360361011e91908101906113f2565b610380565b6040516101309190611823565b60405180910390f35b34801561014557600080fd5b50610160600480360361015b91908101906113f2565b6104ab565b60405161016f93929190611867565b60405180910390f35b34801561018457600080fd5b5061019f600480360361019a9190810190611599565b61069d565b005b3480156101ad57600080fd5b506101c860048036036101c3919081019061141b565b6106b7565b005b3480156101d657600080fd5b506101df61073a565b6040516101ec9190611845565b60405180910390f35b34801561020157600080fd5b5061021c600480360361021791908101906113f2565b6107dc565b60405161022d959493929190611792565b60405180910390f35b34801561024257600080fd5b5061024b610bfe565b6040516102589190611801565b60405180910390f35b34801561026d57600080fd5b50610288600480360361028391908101906113f2565b610c8c565b6040516102959190611823565b60405180910390f35b3480156102aa57600080fd5b506102c560048036036102c0919081019061141b565b610db7565b005b3480156102d357600080fd5b506102ee60048036036102e9919081019061146f565b610e3a565b6040516102fb9190611845565b60405180910390f35b34801561031057600080fd5b5061032b600480360361032691908101906114ee565b611128565b604051610339929190611762565b60405180910390f35b60028181548110151561035157fe5b906000526020600020016000915054906101000a900473ffffffffffffffffffffffffffffffffffffffff1681565b6060600160008373ffffffffffffffffffffffffffffffffffffffff1673ffffffffffffffffffffffffffffffffffffffff168152602001908152602001600020600401805480602002602001604051908101604052809291908181526020016000905b828210156104a0578382906000526020600020018054600181600116156101000203166002900480601f01602080910402602001604051908101604052809291908181526020018280546001816001161561010002031660029004801561048c5780601f106104615761010080835404028352916020019161048c565b820191906000526020600020905b81548152906001019060200180831161046f57829003601f168201915b5050505050815260200190600101906103e4565b505050509050919050565b6001602052806000526040600020600091509050806000018054600181600116156101000203166002900480601f0160208091040260200160405190810160405280929190818152602001828054600181600116156101000203166002900480156105575780601f1061052c57610100808354040283529160200191610557565b820191906000526020600020905b81548152906001019060200180831161053a57829003601f168201915b505050505090806001018054600181600116156101000203166002900480601f0160208091040260200160405190810160405280929190818152602001828054600181600116156101000203166002900480156105f55780601f106105ca576101008083540402835291602001916105f5565b820191906000526020600020905b8154815290600101906020018083116105d857829003601f168201915b505050505090806002018054600181600116156101000203166002900480601f0160208091040260200160405190810160405280929190818152602001828054600181600116156101000203166002900480156106935780601f1061066857610100808354040283529160200191610693565b820191906000526020600020905b81548152906001019060200180831161067657829003601f168201915b5050505050905083565b80600090805190602001906106b39291906112cf565b5050565b600160008373ffffffffffffffffffffffffffffffffffffffff1673ffffffffffffffffffffffffffffffffffffffff1681526020019081526020016000206003018190806001815401808255809150509060018203906000526020600020016000909192909190915090805190602001906107349291906112cf565b50505050565b606060008054600181600116156101000203166002900480601f0160208091040260200160405190810160405280929190818152602001828054600181600116156101000203166002900480156107d25780601f106107a7576101008083540402835291602001916107d2565b820191906000526020600020905b8154815290600101906020018083116107b557829003601f168201915b5050505050905090565b600060608060608085600160008873ffffffffffffffffffffffffffffffffffffffff1673ffffffffffffffffffffffffffffffffffffffff168152602001908152602001600020600001600160008973ffffffffffffffffffffffffffffffffffffffff1673ffffffffffffffffffffffffffffffffffffffff168152602001908152602001600020600101600160008a73ffffffffffffffffffffffffffffffffffffffff1673ffffffffffffffffffffffffffffffffffffffff168152602001908152602001600020600301600160008b73ffffffffffffffffffffffffffffffffffffffff1673ffffffffffffffffffffffffffffffffffffffff168152602001908152602001600020600401838054600181600116156101000203166002900480601f0160208091040260200160405190810160405280929190818152602001828054600181600116156101000203166002900480156109825780601f1061095757610100808354040283529160200191610982565b820191906000526020600020905b81548152906001019060200180831161096557829003601f168201915b50505050509350828054600181600116156101000203166002900480601f016020809104026020016040519081016040528092919081815260200182805460018160011615610100020316600290048015610a1e5780601f106109f357610100808354040283529160200191610a1e565b820191906000526020600020905b815481529060010190602001808311610a0157829003601f168201915b5050505050925081805480602002602001604051908101604052809291908181526020016000905b82821015610b02578382906000526020600020018054600181600116156101000203166002900480601f016020809104026020016040519081016040528092919081815260200182805460018160011615610100020316600290048015610aee5780601f10610ac357610100808354040283529160200191610aee565b820191906000526020600020905b815481529060010190602001808311610ad157829003601f168201915b505050505081526020019060010190610a46565b50505050915080805480602002602001604051908101604052809291908181526020016000905b82821015610be5578382906000526020600020018054600181600116156101000203166002900480601f016020809104026020016040519081016040528092919081815260200182805460018160011615610100020316600290048015610bd15780601f10610ba657610100808354040283529160200191610bd1565b820191906000526020600020905b815481529060010190602001808311610bb457829003601f168201915b505050505081526020019060010190610b29565b5050505090509450945094509450945091939590929450565b60606002805480602002602001604051908101604052809291908181526020018280548015610c8257602002820191906000526020600020905b8160009054906101000a900473ffffffffffffffffffffffffffffffffffffffff1673ffffffffffffffffffffffffffffffffffffffff1681526020019060010190808311610c38575b5050505050905090565b6060600160008373ffffffffffffffffffffffffffffffffffffffff1673ffffffffffffffffffffffffffffffffffffffff168152602001908152602001600020600301805480602002602001604051908101604052809291908181526020016000905b82821015610dac578382906000526020600020018054600181600116156101000203166002900480601f016020809104026020016040519081016040528092919081815260200182805460018160011615610100020316600290048015610d985780601f10610d6d57610100808354040283529160200191610d98565b820191906000526020600020905b815481529060010190602001808311610d7b57829003601f168201915b505050505081526020019060010190610cf0565b505050509050919050565b600160008373ffffffffffffffffffffffffffffffffffffffff1673ffffffffffffffffffffffffffffffffffffffff168152602001908152602001600020600401819080600181540180825580915050906001820390600052602060002001600090919290919091509080519060200190610e349291906112cf565b50505050565b6060826040516020018082805190602001908083835b602083101515610e755780518252602082019150602081019050602083039250610e50565b6001836020036101000a03801982511681845116808217855250505050505090500191505060405160208183030381529060405280519060200120600160008673ffffffffffffffffffffffffffffffffffffffff1673ffffffffffffffffffffffffffffffffffffffff1681526020019081526020016000206000016040516020018082805460018160011615610100020316600290048015610f505780601f10610f2e576101008083540402835291820191610f50565b820191906000526020600020905b815481529060010190602001808311610f3c575b505091505060405160208183030381529060405280519060200120141561112057816040516020018082805190602001908083835b602083101515610faa5780518252602082019150602081019050602083039250610f85565b6001836020036101000a03801982511681845116808217855250505050505090500191505060405160208183030381529060405280519060200120600160008673ffffffffffffffffffffffffffffffffffffffff1673ffffffffffffffffffffffffffffffffffffffff16815260200190815260200160002060020160405160200180828054600181600116156101000203166002900480156110855780601f10611063576101008083540402835291820191611085565b820191906000526020600020905b815481529060010190602001808311611071575b50509150506040516020818303038152906040528051906020012014156110e3576040805190810160405280600e81526020017f616363657373206772616e7465640000000000000000000000000000000000008152509050611121565b6040805190810160405280600e81526020017f206163636573732064656e6965640000000000000000000000000000000000008152509050611121565b5b9392505050565b600060606000600160008873ffffffffffffffffffffffffffffffffffffffff1673ffffffffffffffffffffffffffffffffffffffff1681526020019081526020016000209050858160000190805190602001906111879291906112cf565b50848160010190805190602001906111a09291906112cf565b50838160020190805190602001906111b99291906112cf565b5060028790806001815401808255809150509060018203906000526020600020016000909192909190916101000a81548173ffffffffffffffffffffffffffffffffffffffff021916908373ffffffffffffffffffffffffffffffffffffffff160217905550508681600001808054600181600116156101000203166002900480601f0160208091040260200160405190810160405280929190818152602001828054600181600116156101000203166002900480156112ba5780601f1061128f576101008083540402835291602001916112ba565b820191906000526020600020905b81548152906001019060200180831161129d57829003601f168201915b50505050509050925092505094509492505050565b828054600181600116156101000203166002900490600052602060002090601f016020900481019282601f1061131057805160ff191683800117855561133e565b8280016001018555821561133e579182015b8281111561133d578251825591602001919060010190611322565b5b50905061134b919061134f565b5090565b61137191905b8082111561136d576000816000905550600101611355565b5090565b90565b6000611380823561199e565b905092915050565b600082601f830112151561139b57600080fd5b81356113ae6113a9826118e0565b6118b3565b915080825260208301602083018583830111156113ca57600080fd5b6113d58382846119ba565b50505092915050565b60006113ea82356119b0565b905092915050565b60006020828403121561140457600080fd5b600061141284828501611374565b91505092915050565b6000806040838503121561142e57600080fd5b600061143c85828601611374565b925050602083013567ffffffffffffffff81111561145957600080fd5b61146585828601611388565b9150509250929050565b60008060006060848603121561148457600080fd5b600061149286828701611374565b935050602084013567ffffffffffffffff8111156114af57600080fd5b6114bb86828701611388565b925050604084013567ffffffffffffffff8111156114d857600080fd5b6114e486828701611388565b9150509250925092565b6000806000806080858703121561150457600080fd5b600061151287828801611374565b945050602085013567ffffffffffffffff81111561152f57600080fd5b61153b87828801611388565b935050604085013567ffffffffffffffff81111561155857600080fd5b61156487828801611388565b925050606085013567ffffffffffffffff81111561158157600080fd5b61158d87828801611388565b91505092959194509250565b6000602082840312156115ab57600080fd5b600082013567ffffffffffffffff8111156115c557600080fd5b6115d184828501611388565b91505092915050565b6000602082840312156115ec57600080fd5b60006115fa848285016113de565b91505092915050565b61160c8161196c565b82525050565b600061161d82611926565b80845260208401935061162f8361190c565b60005b8281101561166157611645868351611603565b61164e82611952565b9150602086019550600181019050611632565b50849250505092915050565b600061167882611931565b8084526020840193508360208202850161169185611919565b60005b848110156116ca5783830388526116ac838351611711565b92506116b78261195f565b9150602088019750600181019050611694565b508196508694505050505092915050565b60006116e682611947565b8084526116fa8160208601602086016119c9565b611703816119fc565b602085010191505092915050565b600061171c8261193c565b8084526117308160208601602086016119c9565b611739816119fc565b602085010191505092915050565b600060208201905061175c6000830184611603565b92915050565b60006040820190506117776000830185611603565b818103602083015261178981846116db565b90509392505050565b600060a0820190506117a76000830188611603565b81810360208301526117b981876116db565b905081810360408301526117cd81866116db565b905081810360608301526117e1818561166d565b905081810360808301526117f5818461166d565b90509695505050505050565b6000602082019050818103600083015261181b8184611612565b905092915050565b6000602082019050818103600083015261183d818461166d565b905092915050565b6000602082019050818103600083015261185f81846116db565b905092915050565b600060608201905081810360008301526118818186611711565b905081810360208301526118958185611711565b905081810360408301526118a98184611711565b9050949350505050565b6000604051905081810181811067ffffffffffffffff821117156118d657600080fd5b8060405250919050565b600067ffffffffffffffff8211156118f757600080fd5b601f19601f8301169050602081019050919050565b6000602082019050919050565b6000602082019050919050565b600081519050919050565b600081519050919050565b600081519050919050565b600081519050919050565b6000602082019050919050565b6000602082019050919050565b60006119778261197e565b9050919050565b600073ffffffffffffffffffffffffffffffffffffffff82169050919050565b60006119a98261197e565b9050919050565b6000819050919050565b82818337600083830152505050565b60005b838110156119e75780820151818401526020810190506119cc565b838111156119f6576000848401525b50505050565b6000601f19601f830116905091905056fea265627a7a72305820b98653079dd696319d64105a18720e79d4c6b5944cfafee068d118be7ea6a7b56c6578706572696d656e74616cf50037",
  "source": "pragma solidity ^0.5.0;\npragma experimental ABIEncoderV2;\n\n\ncontract SSSDapp {\n    string ipfsHash;\n\n    function set(string memory _ipfsHash) public {\n        // writing (storing) the hash to the blockchain\n        ipfsHash = _ipfsHash;\n    }\n\n    function get() public view returns (string memory) {\n        // reading from the blockchain\n        return ipfsHash;\n    }\n\n    /*creat object that stores the following:\n    \n    1. user name * \n    2. email            set when user registers\n    3. password *\n    4. MyFiles // alterded when 1.user uploads file , stores the file hash(set) 2. user loggs in, returns ipfsHash(get)\n    5. SharedFiles // altered whenother users share files , user inputs shared file hashes here.\n     */\n\n    struct Users {\n        string userName;\n        string email;\n        string password;\n        string[] myFiles;\n        string[] sharedFiles;\n    }\n\n    mapping(address => Users) public Profiles; // holds list of users\n    address[] public userProfiles;\n\n    //Seter functions (use methods.send)\n\n    // function to add users\n    function registerUser(\n        address userAddress,\n        string memory _userName,\n        string memory _email,\n        string memory _password\n    ) public returns (address, string memory) {\n        Users storage users = Profiles[userAddress];\n        users.userName = _userName;\n        users.email = _email;\n        users.password = _password;\n        userProfiles.push(userAddress);\n        return (userAddress, users.userName);\n    }\n\n    // function to upload files\n    function uploadFile(address userAddress, string memory _Hash) public {\n        Profiles[userAddress].myFiles.push(_Hash);\n    }\n\n    //function to share files\n    function shareFile(address userAddress, string memory _Hash) public {\n        Profiles[userAddress].sharedFiles.push(_Hash);\n    }\n\n    // getter functions (use methods.call)\n    // function to get number of users\n    function getUsersNumber() public view returns (address[] memory) {\n        return userProfiles;\n    }\n\n    //function get specific user\n    function getUser(address userAddress)\n        public\n        view\n        returns (\n            address,\n            string memory,\n            string memory,\n            string[] memory,\n            string[] memory\n        )\n    {\n        return (\n            userAddress,\n            Profiles[userAddress].userName,\n            Profiles[userAddress].email,\n            Profiles[userAddress].myFiles,\n            Profiles[userAddress].sharedFiles\n        );\n    }\n\n    // Signing in function\n    function signIn(\n        address userAddress,\n        string memory _userName,\n        string memory _password\n    ) public returns (string memory) {\n        if (\n            keccak256(abi.encodePacked(Profiles[userAddress].userName)) ==\n            keccak256(abi.encodePacked(_userName))\n        ) {\n            if (\n                keccak256(abi.encodePacked(Profiles[userAddress].password)) ==\n                keccak256(abi.encodePacked(_password))\n            ) {\n                return \"access granted\";\n            } else {\n                return \" access denied\";\n            }\n        }\n    }\n\n    function getMyFiles(address userAdress)\n        public\n        view\n        returns (string[] memory)\n    {\n        return Profiles[userAdress].myFiles;\n    }\n\n    function getSharedFiles(address userAdress)\n        public\n        view\n        returns (string[] memory)\n    {\n        return Profiles[userAdress].sharedFiles;\n    }\n}\n",
  "sourcePath": "/SSSDapp/src/contracts/SSSDapp.sol",
  "compiler": {
    "name": "solc",
    "version": "0.5.0+commit.1d4f565a.Emscripten.clang"
  },
  "schemaVersion": "3.0.2",
  "updatedAt": "2020-04-27T13:26:19.129Z",
  "devdoc": {
    "methods": {}
  },
  "userdoc": {
    "methods": {}
  }
}