{
  "contractName": "SSSDapp",
  "abi": [
    {
      "constant": true,
      "inputs": [
        {
          "name": "",
          "type": "uint256"
        }
      ],
      "name": "userProfiles",
      "outputs": [
        {
          "name": "",
          "type": "address"
        }
      ],
      "payable": false,
      "stateMutability": "view",
      "type": "function",
      "signature": "0x18d4a12d"
    },
    {
      "constant": true,
      "inputs": [
        {
          "name": "",
          "type": "address"
        }
      ],
      "name": "Profiles",
      "outputs": [
        {
          "name": "userName",
          "type": "string"
        },
        {
          "name": "email",
          "type": "string"
        },
        {
          "name": "password",
          "type": "string"
        }
      ],
      "payable": false,
      "stateMutability": "view",
      "type": "function",
      "signature": "0x45ffb23c"
    },
    {
      "constant": false,
      "inputs": [
        {
          "name": "_ipfsHash",
          "type": "string"
        }
      ],
      "name": "set",
      "outputs": [],
      "payable": false,
      "stateMutability": "nonpayable",
      "type": "function",
      "signature": "0x4ed3885e"
    },
    {
      "constant": true,
      "inputs": [],
      "name": "get",
      "outputs": [
        {
          "name": "",
          "type": "string"
        }
      ],
      "payable": false,
      "stateMutability": "view",
      "type": "function",
      "signature": "0x6d4ce63c"
    },
    {
      "constant": false,
      "inputs": [
        {
          "name": "userAddress",
          "type": "address"
        },
        {
          "name": "_userName",
          "type": "string"
        },
        {
          "name": "_email",
          "type": "string"
        },
        {
          "name": "_password",
          "type": "string"
        }
      ],
      "name": "registerUser",
      "outputs": [
        {
          "name": "",
          "type": "address"
        },
        {
          "name": "",
          "type": "string"
        }
      ],
      "payable": false,
      "stateMutability": "nonpayable",
      "type": "function",
      "signature": "0xfe69c296"
    },
    {
      "constant": false,
      "inputs": [
        {
          "name": "userAddress",
          "type": "address"
        },
        {
          "name": "_Hash",
          "type": "string"
        }
      ],
      "name": "uploadFile",
      "outputs": [],
      "payable": false,
      "stateMutability": "nonpayable",
      "type": "function",
      "signature": "0x67f72fa9"
    },
    {
      "constant": false,
      "inputs": [
        {
          "name": "userAddress",
          "type": "address"
        },
        {
          "name": "_Hash",
          "type": "string"
        }
      ],
      "name": "shareFile",
      "outputs": [],
      "payable": false,
      "stateMutability": "nonpayable",
      "type": "function",
      "signature": "0xdfa36d5b"
    },
    {
      "constant": true,
      "inputs": [],
      "name": "getUsersNumber",
      "outputs": [
        {
          "name": "",
          "type": "address[]"
        }
      ],
      "payable": false,
      "stateMutability": "view",
      "type": "function",
      "signature": "0x7fe91239"
    },
    {
      "constant": true,
      "inputs": [
        {
          "name": "userAddress",
          "type": "address"
        }
      ],
      "name": "getUser",
      "outputs": [
        {
          "name": "",
          "type": "address"
        },
        {
          "name": "",
          "type": "string"
        },
        {
          "name": "",
          "type": "string"
        },
        {
          "name": "",
          "type": "string[]"
        },
        {
          "name": "",
          "type": "string[]"
        }
      ],
      "payable": false,
      "stateMutability": "view",
      "type": "function",
      "signature": "0x6f77926b"
    },
    {
      "constant": false,
      "inputs": [
        {
          "name": "userAddress",
          "type": "address"
        },
        {
          "name": "_userName",
          "type": "string"
        },
        {
          "name": "_password",
          "type": "string"
        }
      ],
      "name": "signIn",
      "outputs": [
        {
          "name": "",
          "type": "string"
        }
      ],
      "payable": false,
      "stateMutability": "nonpayable",
      "type": "function",
      "signature": "0xeef0d8d7"
    }
  ],
  "bytecode": "0x608060405234801561001057600080fd5b5061173f806100206000396000f3fe6080604052600436106100a4576000357c0100000000000000000000000000000000000000000000000000000000900463ffffffff16806318d4a12d146100a957806345ffb23c146100e65780634ed3885e1461012557806367f72fa91461014e5780636d4ce63c146101775780636f77926b146101a25780637fe91239146101e3578063dfa36d5b1461020e578063eef0d8d714610237578063fe69c29614610274575b600080fd5b3480156100b557600080fd5b506100d060048036036100cb91908101906112f4565b6102b2565b6040516100dd9190611461565b60405180910390f35b3480156100f257600080fd5b5061010d6004803603610108919081019061110c565b6102f0565b60405161011c9392919061155f565b60405180910390f35b34801561013157600080fd5b5061014c600480360361014791908101906112b3565b6104e2565b005b34801561015a57600080fd5b5061017560048036036101709190810190611135565b6104fc565b005b34801561018357600080fd5b5061018c61057f565b604051610199919061153d565b60405180910390f35b3480156101ae57600080fd5b506101c960048036036101c4919081019061110c565b610621565b6040516101da9594939291906114ac565b60405180910390f35b3480156101ef57600080fd5b506101f8610a43565b604051610205919061151b565b60405180910390f35b34801561021a57600080fd5b5061023560048036036102309190810190611135565b610ad1565b005b34801561024357600080fd5b5061025e60048036036102599190810190611189565b610b54565b60405161026b919061153d565b60405180910390f35b34801561028057600080fd5b5061029b60048036036102969190810190611208565b610e42565b6040516102a992919061147c565b60405180910390f35b6002818154811015156102c157fe5b906000526020600020016000915054906101000a900473ffffffffffffffffffffffffffffffffffffffff1681565b6001602052806000526040600020600091509050806000018054600181600116156101000203166002900480601f01602080910402602001604051908101604052809291908181526020018280546001816001161561010002031660029004801561039c5780601f106103715761010080835404028352916020019161039c565b820191906000526020600020905b81548152906001019060200180831161037f57829003601f168201915b505050505090806001018054600181600116156101000203166002900480601f01602080910402602001604051908101604052809291908181526020018280546001816001161561010002031660029004801561043a5780601f1061040f5761010080835404028352916020019161043a565b820191906000526020600020905b81548152906001019060200180831161041d57829003601f168201915b505050505090806002018054600181600116156101000203166002900480601f0160208091040260200160405190810160405280929190818152602001828054600181600116156101000203166002900480156104d85780601f106104ad576101008083540402835291602001916104d8565b820191906000526020600020905b8154815290600101906020018083116104bb57829003601f168201915b5050505050905083565b80600090805190602001906104f8929190610fe9565b5050565b600160008373ffffffffffffffffffffffffffffffffffffffff1673ffffffffffffffffffffffffffffffffffffffff168152602001908152602001600020600301819080600181540180825580915050906001820390600052602060002001600090919290919091509080519060200190610579929190610fe9565b50505050565b606060008054600181600116156101000203166002900480601f0160208091040260200160405190810160405280929190818152602001828054600181600116156101000203166002900480156106175780601f106105ec57610100808354040283529160200191610617565b820191906000526020600020905b8154815290600101906020018083116105fa57829003601f168201915b5050505050905090565b600060608060608085600160008873ffffffffffffffffffffffffffffffffffffffff1673ffffffffffffffffffffffffffffffffffffffff168152602001908152602001600020600001600160008973ffffffffffffffffffffffffffffffffffffffff1673ffffffffffffffffffffffffffffffffffffffff168152602001908152602001600020600101600160008a73ffffffffffffffffffffffffffffffffffffffff1673ffffffffffffffffffffffffffffffffffffffff168152602001908152602001600020600301600160008b73ffffffffffffffffffffffffffffffffffffffff1673ffffffffffffffffffffffffffffffffffffffff168152602001908152602001600020600401838054600181600116156101000203166002900480601f0160208091040260200160405190810160405280929190818152602001828054600181600116156101000203166002900480156107c75780601f1061079c576101008083540402835291602001916107c7565b820191906000526020600020905b8154815290600101906020018083116107aa57829003601f168201915b50505050509350828054600181600116156101000203166002900480601f0160208091040260200160405190810160405280929190818152602001828054600181600116156101000203166002900480156108635780601f1061083857610100808354040283529160200191610863565b820191906000526020600020905b81548152906001019060200180831161084657829003601f168201915b5050505050925081805480602002602001604051908101604052809291908181526020016000905b82821015610947578382906000526020600020018054600181600116156101000203166002900480601f0160208091040260200160405190810160405280929190818152602001828054600181600116156101000203166002900480156109335780601f1061090857610100808354040283529160200191610933565b820191906000526020600020905b81548152906001019060200180831161091657829003601f168201915b50505050508152602001906001019061088b565b50505050915080805480602002602001604051908101604052809291908181526020016000905b82821015610a2a578382906000526020600020018054600181600116156101000203166002900480601f016020809104026020016040519081016040528092919081815260200182805460018160011615610100020316600290048015610a165780601f106109eb57610100808354040283529160200191610a16565b820191906000526020600020905b8154815290600101906020018083116109f957829003601f168201915b50505050508152602001906001019061096e565b5050505090509450945094509450945091939590929450565b60606002805480602002602001604051908101604052809291908181526020018280548015610ac757602002820191906000526020600020905b8160009054906101000a900473ffffffffffffffffffffffffffffffffffffffff1673ffffffffffffffffffffffffffffffffffffffff1681526020019060010190808311610a7d575b5050505050905090565b600160008373ffffffffffffffffffffffffffffffffffffffff1673ffffffffffffffffffffffffffffffffffffffff168152602001908152602001600020600401819080600181540180825580915050906001820390600052602060002001600090919290919091509080519060200190610b4e929190610fe9565b50505050565b6060826040516020018082805190602001908083835b602083101515610b8f5780518252602082019150602081019050602083039250610b6a565b6001836020036101000a03801982511681845116808217855250505050505090500191505060405160208183030381529060405280519060200120600160008673ffffffffffffffffffffffffffffffffffffffff1673ffffffffffffffffffffffffffffffffffffffff1681526020019081526020016000206000016040516020018082805460018160011615610100020316600290048015610c6a5780601f10610c48576101008083540402835291820191610c6a565b820191906000526020600020905b815481529060010190602001808311610c56575b5050915050604051602081830303815290604052805190602001201415610e3a57816040516020018082805190602001908083835b602083101515610cc45780518252602082019150602081019050602083039250610c9f565b6001836020036101000a03801982511681845116808217855250505050505090500191505060405160208183030381529060405280519060200120600160008673ffffffffffffffffffffffffffffffffffffffff1673ffffffffffffffffffffffffffffffffffffffff1681526020019081526020016000206002016040516020018082805460018160011615610100020316600290048015610d9f5780601f10610d7d576101008083540402835291820191610d9f565b820191906000526020600020905b815481529060010190602001808311610d8b575b5050915050604051602081830303815290604052805190602001201415610dfd576040805190810160405280600e81526020017f616363657373206772616e7465640000000000000000000000000000000000008152509050610e3b565b6040805190810160405280600e81526020017f206163636573732064656e6965640000000000000000000000000000000000008152509050610e3b565b5b9392505050565b600060606000600160008873ffffffffffffffffffffffffffffffffffffffff1673ffffffffffffffffffffffffffffffffffffffff168152602001908152602001600020905085816000019080519060200190610ea1929190610fe9565b5084816001019080519060200190610eba929190610fe9565b5083816002019080519060200190610ed3929190610fe9565b5060028790806001815401808255809150509060018203906000526020600020016000909192909190916101000a81548173ffffffffffffffffffffffffffffffffffffffff021916908373ffffffffffffffffffffffffffffffffffffffff160217905550508681600001808054600181600116156101000203166002900480601f016020809104026020016040519081016040528092919081815260200182805460018160011615610100020316600290048015610fd45780601f10610fa957610100808354040283529160200191610fd4565b820191906000526020600020905b815481529060010190602001808311610fb757829003601f168201915b50505050509050925092505094509492505050565b828054600181600116156101000203166002900490600052602060002090601f016020900481019282601f1061102a57805160ff1916838001178555611058565b82800160010185558215611058579182015b8281111561105757825182559160200191906001019061103c565b5b5090506110659190611069565b5090565b61108b91905b8082111561108757600081600090555060010161106f565b5090565b90565b600061109a8235611696565b905092915050565b600082601f83011215156110b557600080fd5b81356110c86110c3826115d8565b6115ab565b915080825260208301602083018583830111156110e457600080fd5b6110ef8382846116b2565b50505092915050565b600061110482356116a8565b905092915050565b60006020828403121561111e57600080fd5b600061112c8482850161108e565b91505092915050565b6000806040838503121561114857600080fd5b60006111568582860161108e565b925050602083013567ffffffffffffffff81111561117357600080fd5b61117f858286016110a2565b9150509250929050565b60008060006060848603121561119e57600080fd5b60006111ac8682870161108e565b935050602084013567ffffffffffffffff8111156111c957600080fd5b6111d5868287016110a2565b925050604084013567ffffffffffffffff8111156111f257600080fd5b6111fe868287016110a2565b9150509250925092565b6000806000806080858703121561121e57600080fd5b600061122c8782880161108e565b945050602085013567ffffffffffffffff81111561124957600080fd5b611255878288016110a2565b935050604085013567ffffffffffffffff81111561127257600080fd5b61127e878288016110a2565b925050606085013567ffffffffffffffff81111561129b57600080fd5b6112a7878288016110a2565b91505092959194509250565b6000602082840312156112c557600080fd5b600082013567ffffffffffffffff8111156112df57600080fd5b6112eb848285016110a2565b91505092915050565b60006020828403121561130657600080fd5b6000611314848285016110f8565b91505092915050565b61132681611664565b82525050565b60006113378261161e565b80845260208401935061134983611604565b60005b8281101561137b5761135f86835161131d565b6113688261164a565b915060208601955060018101905061134c565b50849250505092915050565b600061139282611629565b808452602084019350836020820285016113ab85611611565b60005b848110156113e45783830388526113c683835161142b565b92506113d182611657565b91506020880197506001810190506113ae565b508196508694505050505092915050565b60006114008261163f565b8084526114148160208601602086016116c1565b61141d816116f4565b602085010191505092915050565b600061143682611634565b80845261144a8160208601602086016116c1565b611453816116f4565b602085010191505092915050565b6000602082019050611476600083018461131d565b92915050565b6000604082019050611491600083018561131d565b81810360208301526114a381846113f5565b90509392505050565b600060a0820190506114c1600083018861131d565b81810360208301526114d381876113f5565b905081810360408301526114e781866113f5565b905081810360608301526114fb8185611387565b9050818103608083015261150f8184611387565b90509695505050505050565b60006020820190508181036000830152611535818461132c565b905092915050565b6000602082019050818103600083015261155781846113f5565b905092915050565b60006060820190508181036000830152611579818661142b565b9050818103602083015261158d818561142b565b905081810360408301526115a1818461142b565b9050949350505050565b6000604051905081810181811067ffffffffffffffff821117156115ce57600080fd5b8060405250919050565b600067ffffffffffffffff8211156115ef57600080fd5b601f19601f8301169050602081019050919050565b6000602082019050919050565b6000602082019050919050565b600081519050919050565b600081519050919050565b600081519050919050565b600081519050919050565b6000602082019050919050565b6000602082019050919050565b600061166f82611676565b9050919050565b600073ffffffffffffffffffffffffffffffffffffffff82169050919050565b60006116a182611676565b9050919050565b6000819050919050565b82818337600083830152505050565b60005b838110156116df5780820151818401526020810190506116c4565b838111156116ee576000848401525b50505050565b6000601f19601f830116905091905056fea265627a7a72305820195169de2cd86b7e2ae4fb406959ca16d139af00e579a18778f94dc56684158f6c6578706572696d656e74616cf50037",
  "source": "pragma solidity ^0.5.0;\npragma experimental ABIEncoderV2;\n\n\ncontract SSSDapp {\n    string ipfsHash;\n\n    function set(string memory _ipfsHash) public {\n        // writing (storing) the hash to the blockchain\n        ipfsHash = _ipfsHash;\n    }\n\n    function get() public view returns (string memory) {\n        // reading from the blockchain\n        return ipfsHash;\n    }\n\n    /*creat object that stores the following:\n    \n    1. user name * \n    2. email            set when user registers\n    3. password *\n    4. MyFiles // alterded when 1.user uploads file , stores the file hash(set) 2. user loggs in, returns ipfsHash(get)\n    5. SharedFiles // altered whenother users share files , user inputs shared file hashes here.\n     */\n\n    struct Users {\n        string userName;\n        string email;\n        string password;\n        string[] myFiles;\n        string[] sharedFiles;\n    }\n\n    mapping(address => Users) public Profiles; // holds list of users\n    address[] public userProfiles;\n\n    //Seter functions (use methods.send)\n\n    // function to add users\n    function registerUser(\n        address userAddress,\n        string memory _userName,\n        string memory _email,\n        string memory _password\n    ) public returns (address, string memory) {\n        Users storage users = Profiles[userAddress];\n        users.userName = _userName;\n        users.email = _email;\n        users.password = _password;\n        userProfiles.push(userAddress);\n        return (userAddress, users.userName);\n    }\n\n    // function to upload files\n    function uploadFile(address userAddress, string memory _Hash) public {\n        Profiles[userAddress].myFiles.push(_Hash);\n    }\n\n    //function to share files\n    function shareFile(address userAddress, string memory _Hash) public {\n        Profiles[userAddress].sharedFiles.push(_Hash);\n    }\n\n    // getter functions (use methods.call)\n    // function to get number of users\n    function getUsersNumber() public view returns (address[] memory) {\n        return userProfiles;\n    }\n\n    //function get specific user\n    function getUser(address userAddress)\n        public\n        view\n        returns (\n            address,\n            string memory,\n            string memory,\n            string[] memory,\n            string[] memory\n        )\n    {\n        return (\n            userAddress,\n            Profiles[userAddress].userName,\n            Profiles[userAddress].email,\n            Profiles[userAddress].myFiles,\n            Profiles[userAddress].sharedFiles\n        );\n    }\n\n    // Signing in function\n    function signIn(\n        address userAddress,\n        string memory _userName,\n        string memory _password\n    ) public returns (string memory) {\n        if (\n            keccak256(abi.encodePacked(Profiles[userAddress].userName)) ==\n            keccak256(abi.encodePacked(_userName))\n        ) {\n            if (\n                keccak256(abi.encodePacked(Profiles[userAddress].password)) ==\n                keccak256(abi.encodePacked(_password))\n            ) {\n                return \"access granted\";\n            } else {\n                return \" access denied\";\n            }\n        }\n    }\n}\n",
  "sourcePath": "/SSSDapp/src/contracts/SSSDapp.sol",
  "compiler": {
    "name": "solc",
    "version": "0.5.0+commit.1d4f565a.Emscripten.clang"
  },
  "schemaVersion": "3.0.2",
  "updatedAt": "2020-03-30T16:41:27.768Z",
  "devdoc": {
    "methods": {}
  },
  "userdoc": {
    "methods": {}
  }
}