{
  "contractName": "SSSDapp",
  "abi": [
    {
      "constant": true,
      "inputs": [
        {
          "name": "",
          "type": "uint256"
        }
      ],
      "name": "Profiles",
      "outputs": [
        {
          "name": "userName",
          "type": "string"
        },
        {
          "name": "email",
          "type": "string"
        },
        {
          "name": "password",
          "type": "string"
        }
      ],
      "payable": false,
      "stateMutability": "view",
      "type": "function",
      "signature": "0x4cea965e"
    },
    {
      "constant": false,
      "inputs": [
        {
          "name": "_ipfsHash",
          "type": "string"
        }
      ],
      "name": "set",
      "outputs": [],
      "payable": false,
      "stateMutability": "nonpayable",
      "type": "function",
      "signature": "0x4ed3885e"
    },
    {
      "constant": true,
      "inputs": [],
      "name": "get",
      "outputs": [
        {
          "name": "",
          "type": "string"
        }
      ],
      "payable": false,
      "stateMutability": "view",
      "type": "function",
      "signature": "0x6d4ce63c"
    },
    {
      "constant": false,
      "inputs": [
        {
          "name": "_userName",
          "type": "string"
        },
        {
          "name": "_email",
          "type": "string"
        },
        {
          "name": "_password",
          "type": "string"
        }
      ],
      "name": "addUser",
      "outputs": [
        {
          "name": "",
          "type": "string"
        }
      ],
      "payable": false,
      "stateMutability": "nonpayable",
      "type": "function",
      "signature": "0x95c5fed4"
    },
    {
      "constant": false,
      "inputs": [
        {
          "name": "_userName",
          "type": "string"
        },
        {
          "name": "_Hash",
          "type": "string"
        }
      ],
      "name": "uploadFile",
      "outputs": [
        {
          "name": "",
          "type": "string"
        }
      ],
      "payable": false,
      "stateMutability": "nonpayable",
      "type": "function",
      "signature": "0x996d50bf"
    },
    {
      "constant": false,
      "inputs": [
        {
          "name": "_userName",
          "type": "string"
        },
        {
          "name": "_Hash",
          "type": "string"
        }
      ],
      "name": "shareFile",
      "outputs": [],
      "payable": false,
      "stateMutability": "nonpayable",
      "type": "function",
      "signature": "0x03aa2a89"
    }
  ],
  "bytecode": "0x6080604052600060015534801561001557600080fd5b50610f50806100256000396000f3fe608060405260043610610078576000357c0100000000000000000000000000000000000000000000000000000000900463ffffffff16806303aa2a891461007d5780634cea965e146101dc5780634ed3885e146103685780636d4ce63c1461043057806395c5fed4146104c0578063996d50bf1461072f575b600080fd5b34801561008957600080fd5b506101da600480360360408110156100a057600080fd5b81019080803590602001906401000000008111156100bd57600080fd5b8201836020820111156100cf57600080fd5b803590602001918460018302840111640100000000831117156100f157600080fd5b91908080601f016020809104026020016040519081016040528093929190818152602001838380828437600081840152601f19601f8201169050808301925050505050505091929192908035906020019064010000000081111561015457600080fd5b82018360208201111561016657600080fd5b8035906020019184600183028401116401000000008311171561018857600080fd5b91908080601f016020809104026020016040519081016040528093929190818152602001838380828437600081840152601f19601f820116905080830192505050505050509192919290505050610907565b005b3480156101e857600080fd5b50610215600480360360208110156101ff57600080fd5b810190808035906020019092919050505061097f565b60405180806020018060200180602001848103845287818151815260200191508051906020019080838360005b8381101561025d578082015181840152602081019050610242565b50505050905090810190601f16801561028a5780820380516001836020036101000a031916815260200191505b50848103835286818151815260200191508051906020019080838360005b838110156102c35780820151818401526020810190506102a8565b50505050905090810190601f1680156102f05780820380516001836020036101000a031916815260200191505b50848103825285818151815260200191508051906020019080838360005b8381101561032957808201518184015260208101905061030e565b50505050905090810190601f1680156103565780820380516001836020036101000a031916815260200191505b50965050505050505060405180910390f35b34801561037457600080fd5b5061042e6004803603602081101561038b57600080fd5b81019080803590602001906401000000008111156103a857600080fd5b8201836020820111156103ba57600080fd5b803590602001918460018302840111640100000000831117156103dc57600080fd5b91908080601f016020809104026020016040519081016040528093929190818152602001838380828437600081840152601f19601f820116905080830192505050505050509192919290505050610b71565b005b34801561043c57600080fd5b50610445610b8b565b6040518080602001828103825283818151815260200191508051906020019080838360005b8381101561048557808201518184015260208101905061046a565b50505050905090810190601f1680156104b25780820380516001836020036101000a031916815260200191505b509250505060405180910390f35b3480156104cc57600080fd5b506106b4600480360360608110156104e357600080fd5b810190808035906020019064010000000081111561050057600080fd5b82018360208201111561051257600080fd5b8035906020019184600183028401116401000000008311171561053457600080fd5b91908080601f016020809104026020016040519081016040528093929190818152602001838380828437600081840152601f19601f8201169050808301925050505050505091929192908035906020019064010000000081111561059757600080fd5b8201836020820111156105a957600080fd5b803590602001918460018302840111640100000000831117156105cb57600080fd5b91908080601f016020809104026020016040519081016040528093929190818152602001838380828437600081840152601f19601f8201169050808301925050505050505091929192908035906020019064010000000081111561062e57600080fd5b82018360208201111561064057600080fd5b8035906020019184600183028401116401000000008311171561066257600080fd5b91908080601f016020809104026020016040519081016040528093929190818152602001838380828437600081840152601f19601f820116905080830192505050505050509192919290505050610c2d565b6040518080602001828103825283818151815260200191508051906020019080838360005b838110156106f45780820151818401526020810190506106d9565b50505050905090810190601f1680156107215780820380516001836020036101000a031916815260200191505b509250505060405180910390f35b34801561073b57600080fd5b5061088c6004803603604081101561075257600080fd5b810190808035906020019064010000000081111561076f57600080fd5b82018360208201111561078157600080fd5b803590602001918460018302840111640100000000831117156107a357600080fd5b91908080601f016020809104026020016040519081016040528093929190818152602001838380828437600081840152601f19601f8201169050808301925050505050505091929192908035906020019064010000000081111561080657600080fd5b82018360208201111561081857600080fd5b8035906020019184600183028401116401000000008311171561083a57600080fd5b91908080601f016020809104026020016040519081016040528093929190818152602001838380828437600081840152601f19601f820116905080830192505050505050509192919290505050610d4c565b6040518080602001828103825283818151815260200191508051906020019080838360005b838110156108cc5780820151818401526020810190506108b1565b50505050905090810190601f1680156108f95780820380516001836020036101000a031916815260200191505b509250505060405180910390f35b6000600360006001548152602001908152602001600020905082816000019080519060200190610938929190610e7f565b5080600401829080600181540180825580915050906001820390600052602060002001600090919290919091509080519060200190610978929190610e7f565b5050505050565b6003602052806000526040600020600091509050806000018054600181600116156101000203166002900480601f016020809104026020016040519081016040528092919081815260200182805460018160011615610100020316600290048015610a2b5780601f10610a0057610100808354040283529160200191610a2b565b820191906000526020600020905b815481529060010190602001808311610a0e57829003601f168201915b505050505090806001018054600181600116156101000203166002900480601f016020809104026020016040519081016040528092919081815260200182805460018160011615610100020316600290048015610ac95780601f10610a9e57610100808354040283529160200191610ac9565b820191906000526020600020905b815481529060010190602001808311610aac57829003601f168201915b505050505090806002018054600181600116156101000203166002900480601f016020809104026020016040519081016040528092919081815260200182805460018160011615610100020316600290048015610b675780601f10610b3c57610100808354040283529160200191610b67565b820191906000526020600020905b815481529060010190602001808311610b4a57829003601f168201915b5050505050905083565b8060009080519060200190610b87929190610e7f565b5050565b606060008054600181600116156101000203166002900480601f016020809104026020016040519081016040528092919081815260200182805460018160011615610100020316600290048015610c235780601f10610bf857610100808354040283529160200191610c23565b820191906000526020600020905b815481529060010190602001808311610c0657829003601f168201915b5050505050905090565b60606000600360006001548152602001908152602001600020905084816000019080519060200190610c60929190610e7f565b5083816001019080519060200190610c79929190610e7f565b5082816002019080519060200190610c92929190610e7f565b50600160008154809291906001019190505550806000018054600181600116156101000203166002900480601f016020809104026020016040519081016040528092919081815260200182805460018160011615610100020316600290048015610d3d5780601f10610d1257610100808354040283529160200191610d3d565b820191906000526020600020905b815481529060010190602001808311610d2057829003601f168201915b50505050509150509392505050565b60606000600360006001548152602001908152602001600020905083816000019080519060200190610d7f929190610e7f565b5080600301839080600181540180825580915050906001820390600052602060002001600090919290919091509080519060200190610dbf929190610e7f565b5050806003016000815481101515610dd357fe5b906000526020600020018054600181600116156101000203166002900480601f016020809104026020016040519081016040528092919081815260200182805460018160011615610100020316600290048015610e715780601f10610e4657610100808354040283529160200191610e71565b820191906000526020600020905b815481529060010190602001808311610e5457829003601f168201915b505050505091505092915050565b828054600181600116156101000203166002900490600052602060002090601f016020900481019282601f10610ec057805160ff1916838001178555610eee565b82800160010185558215610eee579182015b82811115610eed578251825591602001919060010190610ed2565b5b509050610efb9190610eff565b5090565b610f2191905b80821115610f1d576000816000905550600101610f05565b5090565b9056fea165627a7a72305820cba1619b760b48a0091931d17e3a67a4af9f0e524f9fe94ee1f7c30b0482a3270029",
  "source": "pragma solidity ^0.5.0;\n\ncontract SSSDapp {\n    string ipfsHash;\n\n    function set(string memory _ipfsHash) public {\n        // writing (storing) the hash to the blockchain\n        ipfsHash = _ipfsHash;\n    }\n\n    function get() public view returns (string memory) {\n        // reading from the blockchain\n        return ipfsHash;\n    }\n    /*creat object that stores the following:\n    \n    1. user name * \n    2. email            set when user registers\n    3. password *\n    4. MyFiles // alterded when 1.user uploads file , stores the file hash(set) 2. user loggs in, returns ipfsHash(get)\n    5. SharedFiles // altered whenother users share files , user inputs shared file hashes here.\n     */\n    struct Users {\n        string userName;\n        string email;\n        string password;\n        string[] myFiles;\n        string[] sharedFiles;\n        //mapping(uint256 => myFiles) MyFiles; // holds list of user files\n        //mapping(uint256 => sharedFiles) SharedFiles; // holds list of shared files\n    }\n    struct myFiles {\n        string Hash;\n    }\n    struct sharedFiles {\n        string Hash;\n    }\n\n    uint256 userID = 0;\n    uint256 fileNumber;\n    mapping(uint256 => Users) public Profiles; // holds list of users\n\n    // function to add users\n    function addUser(\n        string memory _userName,\n        string memory _email,\n        string memory _password\n    ) public returns (string memory) {\n        Users storage users = Profiles[userID];\n        users.userName = _userName;\n        users.email = _email;\n        users.password = _password;\n        userID++;\n        //uint256 id = userID;\n        return users.userName;\n    }\n    // function to upload files\n    function uploadFile(string memory _userName, string memory _Hash) public returns (string memory){\n        Users storage users = Profiles[userID];\n        users.userName = _userName;\n        users.myFiles.push(_Hash);\n        return users.myFiles[0];\n\n    }\n\n    //function to share files\n    function shareFile(string memory _userName, string memory _Hash) public {\n        Users storage users = Profiles[userID];\n        users.userName = _userName;\n        users.sharedFiles.push(_Hash);\n\n    }\n\n    /* \n\n    function start(bytes32 userName, bytes32 email, bytes32 Hash)\n        public\n        returns (uint256 id)\n    {\n        struct SSSDapp.Users storage pointer user = Profiles[userID];\n\n        userID++;\n\n    }*/\n\n}\n",
  "sourcePath": "/SSSDapp/src/contracts/SSSDapp.sol",
  "compiler": {
    "name": "solc",
    "version": "0.5.0+commit.1d4f565a.Emscripten.clang"
  },
  "schemaVersion": "3.0.2",
  "updatedAt": "2020-03-21T15:16:51.570Z",
  "devdoc": {
    "methods": {}
  },
  "userdoc": {
    "methods": {}
  }
}