{
  "contractName": "SSSDapp",
  "abi": [
    {
      "constant": true,
      "inputs": [
        {
          "name": "",
          "type": "uint256"
        }
      ],
      "name": "userProfiles",
      "outputs": [
        {
          "name": "",
          "type": "uint256"
        }
      ],
      "payable": false,
      "stateMutability": "view",
      "type": "function",
      "signature": "0x18d4a12d"
    },
    {
      "constant": true,
      "inputs": [
        {
          "name": "",
          "type": "uint256"
        }
      ],
      "name": "Profiles",
      "outputs": [
        {
          "name": "userName",
          "type": "string"
        },
        {
          "name": "email",
          "type": "string"
        },
        {
          "name": "password",
          "type": "string"
        }
      ],
      "payable": false,
      "stateMutability": "view",
      "type": "function",
      "signature": "0x4cea965e"
    },
    {
      "constant": false,
      "inputs": [
        {
          "name": "_ipfsHash",
          "type": "string"
        }
      ],
      "name": "set",
      "outputs": [],
      "payable": false,
      "stateMutability": "nonpayable",
      "type": "function",
      "signature": "0x4ed3885e"
    },
    {
      "constant": true,
      "inputs": [],
      "name": "get",
      "outputs": [
        {
          "name": "",
          "type": "string"
        }
      ],
      "payable": false,
      "stateMutability": "view",
      "type": "function",
      "signature": "0x6d4ce63c"
    },
    {
      "constant": false,
      "inputs": [
        {
          "name": "userID",
          "type": "uint256"
        },
        {
          "name": "_userName",
          "type": "string"
        },
        {
          "name": "_email",
          "type": "string"
        },
        {
          "name": "_password",
          "type": "string"
        }
      ],
      "name": "addUser",
      "outputs": [],
      "payable": false,
      "stateMutability": "nonpayable",
      "type": "function",
      "signature": "0xae534ec8"
    },
    {
      "constant": false,
      "inputs": [
        {
          "name": "_userID",
          "type": "uint256"
        },
        {
          "name": "_Hash",
          "type": "string"
        }
      ],
      "name": "uploadFile",
      "outputs": [],
      "payable": false,
      "stateMutability": "nonpayable",
      "type": "function",
      "signature": "0xfa4d14ce"
    },
    {
      "constant": false,
      "inputs": [
        {
          "name": "_userID",
          "type": "uint256"
        },
        {
          "name": "_Hash",
          "type": "string"
        }
      ],
      "name": "sharedFile",
      "outputs": [],
      "payable": false,
      "stateMutability": "nonpayable",
      "type": "function",
      "signature": "0xe2b3e181"
    },
    {
      "constant": true,
      "inputs": [],
      "name": "getUsersNumber",
      "outputs": [
        {
          "name": "",
          "type": "uint256[]"
        }
      ],
      "payable": false,
      "stateMutability": "view",
      "type": "function",
      "signature": "0x7fe91239"
    },
    {
      "constant": true,
      "inputs": [
        {
          "name": "userID",
          "type": "uint256"
        }
      ],
      "name": "getUser",
      "outputs": [
        {
          "name": "",
          "type": "string"
        },
        {
          "name": "",
          "type": "string"
        },
        {
          "name": "",
          "type": "string[]"
        }
      ],
      "payable": false,
      "stateMutability": "view",
      "type": "function",
      "signature": "0xb0467deb"
    },
    {
      "constant": true,
      "inputs": [
        {
          "name": "userID",
          "type": "uint256"
        }
      ],
      "name": "returnName",
      "outputs": [
        {
          "name": "",
          "type": "string"
        }
      ],
      "payable": false,
      "stateMutability": "view",
      "type": "function",
      "signature": "0x120b152a"
    }
  ],
  "bytecode": "0x608060405234801561001057600080fd5b5061103b806100206000396000f3fe6080604052600436106100a4576000357c0100000000000000000000000000000000000000000000000000000000900463ffffffff168063120b152a146100a957806318d4a12d146100e65780634cea965e146101235780634ed3885e146101625780636d4ce63c1461018b5780637fe91239146101b6578063ae534ec8146101e1578063b0467deb1461020a578063e2b3e18114610249578063fa4d14ce14610272575b600080fd5b3480156100b557600080fd5b506100d060048036036100cb9190810190610b7e565b61029b565b6040516100dd9190610e0c565b60405180910390f35b3480156100f257600080fd5b5061010d60048036036101089190810190610b7e565b610353565b60405161011a9190610ec6565b60405180910390f35b34801561012f57600080fd5b5061014a60048036036101459190810190610b7e565b610376565b60405161015993929190610e7a565b60405180910390f35b34801561016e57600080fd5b5061018960048036036101849190810190610b3d565b610568565b005b34801561019757600080fd5b506101a0610582565b6040516101ad9190610e0c565b60405180910390f35b3480156101c257600080fd5b506101cb610624565b6040516101d89190610dea565b60405180910390f35b3480156101ed57600080fd5b5061020860048036036102039190810190610bfb565b61067c565b005b34801561021657600080fd5b50610231600480360361022c9190810190610b7e565b610711565b60405161024093929190610e2e565b60405180910390f35b34801561025557600080fd5b50610270600480360361026b9190810190610ba7565b610980565b005b34801561027e57600080fd5b5061029960048036036102949190810190610ba7565b6109d7565b005b6060600160008381526020019081526020016000206000018054600181600116156101000203166002900480601f0160208091040260200160405190810160405280929190818152602001828054600181600116156101000203166002900480156103475780601f1061031c57610100808354040283529160200191610347565b820191906000526020600020905b81548152906001019060200180831161032a57829003601f168201915b50505050509050919050565b60028181548110151561036257fe5b906000526020600020016000915090505481565b6001602052806000526040600020600091509050806000018054600181600116156101000203166002900480601f0160208091040260200160405190810160405280929190818152602001828054600181600116156101000203166002900480156104225780601f106103f757610100808354040283529160200191610422565b820191906000526020600020905b81548152906001019060200180831161040557829003601f168201915b505050505090806001018054600181600116156101000203166002900480601f0160208091040260200160405190810160405280929190818152602001828054600181600116156101000203166002900480156104c05780601f10610495576101008083540402835291602001916104c0565b820191906000526020600020905b8154815290600101906020018083116104a357829003601f168201915b505050505090806002018054600181600116156101000203166002900480601f01602080910402602001604051908101604052809291908181526020018280546001816001161561010002031660029004801561055e5780601f106105335761010080835404028352916020019161055e565b820191906000526020600020905b81548152906001019060200180831161054157829003601f168201915b5050505050905083565b806000908051906020019061057e929190610a2e565b5050565b606060008054600181600116156101000203166002900480601f01602080910402602001604051908101604052809291908181526020018280546001816001161561010002031660029004801561061a5780601f106105ef5761010080835404028352916020019161061a565b820191906000526020600020905b8154815290600101906020018083116105fd57829003601f168201915b5050505050905090565b6060600280548060200260200160405190810160405280929190818152602001828054801561067257602002820191906000526020600020905b81548152602001906001019080831161065e575b5050505050905090565b6000600160008681526020019081526020016000209050838160000190805190602001906106ab929190610a2e565b50828160010190805190602001906106c4929190610a2e565b50818160020190805190602001906106dd929190610a2e565b5060028590806001815401808255809150509060018203906000526020600020016000909192909190915055505050505050565b6060806060600160008581526020019081526020016000206000016001600086815260200190815260200160002060010160016000878152602001908152602001600020600301828054600181600116156101000203166002900480601f0160208091040260200160405190810160405280929190818152602001828054600181600116156101000203166002900480156107ed5780601f106107c2576101008083540402835291602001916107ed565b820191906000526020600020905b8154815290600101906020018083116107d057829003601f168201915b50505050509250818054600181600116156101000203166002900480601f0160208091040260200160405190810160405280929190818152602001828054600181600116156101000203166002900480156108895780601f1061085e57610100808354040283529160200191610889565b820191906000526020600020905b81548152906001019060200180831161086c57829003601f168201915b5050505050915080805480602002602001604051908101604052809291908181526020016000905b8282101561096d578382906000526020600020018054600181600116156101000203166002900480601f0160208091040260200160405190810160405280929190818152602001828054600181600116156101000203166002900480156109595780601f1061092e57610100808354040283529160200191610959565b820191906000526020600020905b81548152906001019060200180831161093c57829003601f168201915b5050505050815260200190600101906108b1565b5050505090509250925092509193909250565b600160008381526020019081526020016000206004018190806001815401808255809150509060018203906000526020600020016000909192909190915090805190602001906109d1929190610a2e565b50505050565b60016000838152602001908152602001600020600301819080600181540180825580915050906001820390600052602060002001600090919290919091509080519060200190610a28929190610a2e565b50505050565b828054600181600116156101000203166002900490600052602060002090601f016020900481019282601f10610a6f57805160ff1916838001178555610a9d565b82800160010185558215610a9d579182015b82811115610a9c578251825591602001919060010190610a81565b5b509050610aaa9190610aae565b5090565b610ad091905b80821115610acc576000816000905550600101610ab4565b5090565b90565b600082601f8301121515610ae657600080fd5b8135610af9610af482610f0e565b610ee1565b91508082526020830160208301858383011115610b1557600080fd5b610b20838284610fae565b50505092915050565b6000610b358235610fa4565b905092915050565b600060208284031215610b4f57600080fd5b600082013567ffffffffffffffff811115610b6957600080fd5b610b7584828501610ad3565b91505092915050565b600060208284031215610b9057600080fd5b6000610b9e84828501610b29565b91505092915050565b60008060408385031215610bba57600080fd5b6000610bc885828601610b29565b925050602083013567ffffffffffffffff811115610be557600080fd5b610bf185828601610ad3565b9150509250929050565b60008060008060808587031215610c1157600080fd5b6000610c1f87828801610b29565b945050602085013567ffffffffffffffff811115610c3c57600080fd5b610c4887828801610ad3565b935050604085013567ffffffffffffffff811115610c6557600080fd5b610c7187828801610ad3565b925050606085013567ffffffffffffffff811115610c8e57600080fd5b610c9a87828801610ad3565b91505092959194509250565b6000610cb182610f54565b80845260208401935083602082028501610cca85610f3a565b60005b84811015610d03578383038852610ce5838351610da5565b9250610cf082610f80565b9150602088019750600181019050610ccd565b508196508694505050505092915050565b6000610d1f82610f5f565b808452602084019350610d3183610f47565b60005b82811015610d6357610d47868351610ddb565b610d5082610f8d565b9150602086019550600181019050610d34565b50849250505092915050565b6000610d7a82610f75565b808452610d8e816020860160208601610fbd565b610d9781610ff0565b602085010191505092915050565b6000610db082610f6a565b808452610dc4816020860160208601610fbd565b610dcd81610ff0565b602085010191505092915050565b610de481610f9a565b82525050565b60006020820190508181036000830152610e048184610d14565b905092915050565b60006020820190508181036000830152610e268184610d6f565b905092915050565b60006060820190508181036000830152610e488186610d6f565b90508181036020830152610e5c8185610d6f565b90508181036040830152610e708184610ca6565b9050949350505050565b60006060820190508181036000830152610e948186610da5565b90508181036020830152610ea88185610da5565b90508181036040830152610ebc8184610da5565b9050949350505050565b6000602082019050610edb6000830184610ddb565b92915050565b6000604051905081810181811067ffffffffffffffff82111715610f0457600080fd5b8060405250919050565b600067ffffffffffffffff821115610f2557600080fd5b601f19601f8301169050602081019050919050565b6000602082019050919050565b6000602082019050919050565b600081519050919050565b600081519050919050565b600081519050919050565b600081519050919050565b6000602082019050919050565b6000602082019050919050565b6000819050919050565b6000819050919050565b82818337600083830152505050565b60005b83811015610fdb578082015181840152602081019050610fc0565b83811115610fea576000848401525b50505050565b6000601f19601f830116905091905056fea265627a7a72305820d4730351a20819ba7b41bcfb140717f7f609a4ed145db1fad2a781ffad84beac6c6578706572696d656e74616cf50037",
  "source": "pragma solidity ^0.5.0;\npragma experimental ABIEncoderV2;\n\ncontract SSSDapp {\n    string ipfsHash;\n\n    function set(string memory _ipfsHash) public {\n        // writing (storing) the hash to the blockchain\n        ipfsHash = _ipfsHash;\n    }\n\n    function get() public view returns (string memory) {\n        // reading from the blockchain\n        return ipfsHash;\n    }\n    /*creat object that stores the following:\n    \n    1. user name * \n    2. email            set when user registers\n    3. password *\n    4. MyFiles // alterded when 1.user uploads file , stores the file hash(set) 2. user loggs in, returns ipfsHash(get)\n    5. SharedFiles // altered whenother users share files , user inputs shared file hashes here.\n     */\n\n    struct Users {\n        string userName;\n        string email;\n        string password;\n        string[] myFiles;\n        string[] sharedFiles;\n    }\n\n    mapping(uint256 => Users) public Profiles; // holds list of users\n    uint256[] public userProfiles;\n\n    //Seter functions (use methods.send)\n\n    // function to add users\n    function addUser(\n        uint256 userID,\n        string memory _userName,\n        string memory _email,\n        string memory _password\n    ) public {\n        Users storage users = Profiles[userID];\n        users.userName = _userName;\n        users.email = _email;\n        users.password = _password;\n        userProfiles.push(userID);\n    }\n\n    // function to upload files\n    function uploadFile(uint256 _userID, string memory _Hash) public {\n        Profiles[_userID].myFiles.push(_Hash);\n    }\n\n    //function to share files\n    function sharedFile(uint256 _userID, string memory _Hash) public {\n        Profiles[_userID].sharedFiles.push(_Hash);\n    }\n\n    // getter functions (use methods.call)\n    // function to get number of users\n    function getUsersNumber() public view returns (uint256[] memory) {\n        return userProfiles;\n    }\n\n    //function get specific user\n    function getUser(uint256 userID)\n        public\n        view\n        returns (string memory, string memory, string[] memory)\n    {\n        return (\n            Profiles[userID].userName,\n            Profiles[userID].email,\n            Profiles[userID].myFiles\n        );\n    }\n\n    //function that returns username with id0\n    function returnName(uint256 userID) public view returns (string memory) {\n        return Profiles[userID].userName;\n    }\n\n}\n",
  "sourcePath": "/SSSDapp/src/contracts/SSSDapp.sol",
  "compiler": {
    "name": "solc",
    "version": "0.5.0+commit.1d4f565a.Emscripten.clang"
  },
  "schemaVersion": "3.0.2",
  "updatedAt": "2020-03-23T11:04:24.674Z",
  "devdoc": {
    "methods": {}
  },
  "userdoc": {
    "methods": {}
  }
}