{
  "contractName": "SSSDapp",
  "abi": [
    {
      "constant": true,
      "inputs": [
        {
          "name": "",
          "type": "uint256"
        }
      ],
      "name": "userProfiles",
      "outputs": [
        {
          "name": "",
          "type": "uint256"
        }
      ],
      "payable": false,
      "stateMutability": "view",
      "type": "function",
      "signature": "0x18d4a12d"
    },
    {
      "constant": true,
      "inputs": [
        {
          "name": "",
          "type": "uint256"
        }
      ],
      "name": "Profiles",
      "outputs": [
        {
          "name": "userName",
          "type": "string"
        },
        {
          "name": "email",
          "type": "string"
        },
        {
          "name": "password",
          "type": "string"
        }
      ],
      "payable": false,
      "stateMutability": "view",
      "type": "function",
      "signature": "0x4cea965e"
    },
    {
      "constant": false,
      "inputs": [
        {
          "name": "_ipfsHash",
          "type": "string"
        }
      ],
      "name": "set",
      "outputs": [],
      "payable": false,
      "stateMutability": "nonpayable",
      "type": "function",
      "signature": "0x4ed3885e"
    },
    {
      "constant": true,
      "inputs": [],
      "name": "get",
      "outputs": [
        {
          "name": "",
          "type": "string"
        }
      ],
      "payable": false,
      "stateMutability": "view",
      "type": "function",
      "signature": "0x6d4ce63c"
    },
    {
      "constant": false,
      "inputs": [
        {
          "name": "userID",
          "type": "uint256"
        },
        {
          "name": "_userName",
          "type": "string"
        },
        {
          "name": "_email",
          "type": "string"
        },
        {
          "name": "_password",
          "type": "string"
        }
      ],
      "name": "registerUser",
      "outputs": [],
      "payable": false,
      "stateMutability": "nonpayable",
      "type": "function",
      "signature": "0xe6813b56"
    },
    {
      "constant": false,
      "inputs": [
        {
          "name": "_userID",
          "type": "uint256"
        },
        {
          "name": "_Hash",
          "type": "string"
        }
      ],
      "name": "uploadFile",
      "outputs": [],
      "payable": false,
      "stateMutability": "nonpayable",
      "type": "function",
      "signature": "0xfa4d14ce"
    },
    {
      "constant": false,
      "inputs": [
        {
          "name": "_userID",
          "type": "uint256"
        },
        {
          "name": "_Hash",
          "type": "string"
        }
      ],
      "name": "sharedFile",
      "outputs": [],
      "payable": false,
      "stateMutability": "nonpayable",
      "type": "function",
      "signature": "0xe2b3e181"
    },
    {
      "constant": true,
      "inputs": [],
      "name": "getUsersNumber",
      "outputs": [
        {
          "name": "",
          "type": "uint256[]"
        }
      ],
      "payable": false,
      "stateMutability": "view",
      "type": "function",
      "signature": "0x7fe91239"
    },
    {
      "constant": true,
      "inputs": [
        {
          "name": "userID",
          "type": "uint256"
        }
      ],
      "name": "getUser",
      "outputs": [
        {
          "name": "",
          "type": "string"
        },
        {
          "name": "",
          "type": "string"
        },
        {
          "name": "",
          "type": "string[]"
        }
      ],
      "payable": false,
      "stateMutability": "view",
      "type": "function",
      "signature": "0xb0467deb"
    },
    {
      "constant": false,
      "inputs": [
        {
          "name": "_userID",
          "type": "uint256"
        },
        {
          "name": "_password",
          "type": "string"
        }
      ],
      "name": "signIn",
      "outputs": [
        {
          "name": "",
          "type": "bool"
        }
      ],
      "payable": false,
      "stateMutability": "nonpayable",
      "type": "function",
      "signature": "0x69420599"
    }
  ],
  "bytecode": "0x608060405234801561001057600080fd5b506110d8806100206000396000f3fe6080604052600436106100a4576000357c0100000000000000000000000000000000000000000000000000000000900463ffffffff16806318d4a12d146100a95780634cea965e146100e65780634ed3885e14610125578063694205991461014e5780636d4ce63c1461018b5780637fe91239146101b6578063b0467deb146101e1578063e2b3e18114610220578063e6813b5614610249578063fa4d14ce14610272575b600080fd5b3480156100b557600080fd5b506100d060048036036100cb9190810190610be5565b61029b565b6040516100dd9190610f57565b60405180910390f35b3480156100f257600080fd5b5061010d60048036036101089190810190610be5565b6102be565b60405161011c93929190610f0b565b60405180910390f35b34801561013157600080fd5b5061014c60048036036101479190810190610ba4565b6104b0565b005b34801561015a57600080fd5b5061017560048036036101709190810190610c0e565b6104ca565b6040516101829190610e82565b60405180910390f35b34801561019757600080fd5b506101a06105e9565b6040516101ad9190610e9d565b60405180910390f35b3480156101c257600080fd5b506101cb61068b565b6040516101d89190610e60565b60405180910390f35b3480156101ed57600080fd5b5061020860048036036102039190810190610be5565b6106e3565b60405161021793929190610ebf565b60405180910390f35b34801561022c57600080fd5b5061024760048036036102429190810190610c0e565b610952565b005b34801561025557600080fd5b50610270600480360361026b9190810190610c62565b6109a9565b005b34801561027e57600080fd5b5061029960048036036102949190810190610c0e565b610a3e565b005b6002818154811015156102aa57fe5b906000526020600020016000915090505481565b6001602052806000526040600020600091509050806000018054600181600116156101000203166002900480601f01602080910402602001604051908101604052809291908181526020018280546001816001161561010002031660029004801561036a5780601f1061033f5761010080835404028352916020019161036a565b820191906000526020600020905b81548152906001019060200180831161034d57829003601f168201915b505050505090806001018054600181600116156101000203166002900480601f0160208091040260200160405190810160405280929190818152602001828054600181600116156101000203166002900480156104085780601f106103dd57610100808354040283529160200191610408565b820191906000526020600020905b8154815290600101906020018083116103eb57829003601f168201915b505050505090806002018054600181600116156101000203166002900480601f0160208091040260200160405190810160405280929190818152602001828054600181600116156101000203166002900480156104a65780601f1061047b576101008083540402835291602001916104a6565b820191906000526020600020905b81548152906001019060200180831161048957829003601f168201915b5050505050905083565b80600090805190602001906104c6929190610a95565b5050565b6000816040516020018082805190602001908083835b60208310151561050557805182526020820191506020810190506020830392506104e0565b6001836020036101000a038019825116818451168082178552505050505050905001915050604051602081830303815290604052805190602001206001600085815260200190815260200160002060020160405160200180828054600181600116156101000203166002900480156105b45780601f106105925761010080835404028352918201916105b4565b820191906000526020600020905b8154815290600101906020018083116105a0575b50509150506040516020818303038152906040528051906020012014156105de57600190506105e3565b600090505b92915050565b606060008054600181600116156101000203166002900480601f0160208091040260200160405190810160405280929190818152602001828054600181600116156101000203166002900480156106815780601f1061065657610100808354040283529160200191610681565b820191906000526020600020905b81548152906001019060200180831161066457829003601f168201915b5050505050905090565b606060028054806020026020016040519081016040528092919081815260200182805480156106d957602002820191906000526020600020905b8154815260200190600101908083116106c5575b5050505050905090565b6060806060600160008581526020019081526020016000206000016001600086815260200190815260200160002060010160016000878152602001908152602001600020600301828054600181600116156101000203166002900480601f0160208091040260200160405190810160405280929190818152602001828054600181600116156101000203166002900480156107bf5780601f10610794576101008083540402835291602001916107bf565b820191906000526020600020905b8154815290600101906020018083116107a257829003601f168201915b50505050509250818054600181600116156101000203166002900480601f01602080910402602001604051908101604052809291908181526020018280546001816001161561010002031660029004801561085b5780601f106108305761010080835404028352916020019161085b565b820191906000526020600020905b81548152906001019060200180831161083e57829003601f168201915b5050505050915080805480602002602001604051908101604052809291908181526020016000905b8282101561093f578382906000526020600020018054600181600116156101000203166002900480601f01602080910402602001604051908101604052809291908181526020018280546001816001161561010002031660029004801561092b5780601f106109005761010080835404028352916020019161092b565b820191906000526020600020905b81548152906001019060200180831161090e57829003601f168201915b505050505081526020019060010190610883565b5050505090509250925092509193909250565b600160008381526020019081526020016000206004018190806001815401808255809150509060018203906000526020600020016000909192909190915090805190602001906109a3929190610a95565b50505050565b6000600160008681526020019081526020016000209050838160000190805190602001906109d8929190610a95565b50828160010190805190602001906109f1929190610a95565b5081816002019080519060200190610a0a929190610a95565b5060028590806001815401808255809150509060018203906000526020600020016000909192909190915055505050505050565b60016000838152602001908152602001600020600301819080600181540180825580915050906001820390600052602060002001600090919290919091509080519060200190610a8f929190610a95565b50505050565b828054600181600116156101000203166002900490600052602060002090601f016020900481019282601f10610ad657805160ff1916838001178555610b04565b82800160010185558215610b04579182015b82811115610b03578251825591602001919060010190610ae8565b5b509050610b119190610b15565b5090565b610b3791905b80821115610b33576000816000905550600101610b1b565b5090565b90565b600082601f8301121515610b4d57600080fd5b8135610b60610b5b82610f9f565b610f72565b91508082526020830160208301858383011115610b7c57600080fd5b610b8783828461104b565b50505092915050565b6000610b9c8235611041565b905092915050565b600060208284031215610bb657600080fd5b600082013567ffffffffffffffff811115610bd057600080fd5b610bdc84828501610b3a565b91505092915050565b600060208284031215610bf757600080fd5b6000610c0584828501610b90565b91505092915050565b60008060408385031215610c2157600080fd5b6000610c2f85828601610b90565b925050602083013567ffffffffffffffff811115610c4c57600080fd5b610c5885828601610b3a565b9150509250929050565b60008060008060808587031215610c7857600080fd5b6000610c8687828801610b90565b945050602085013567ffffffffffffffff811115610ca357600080fd5b610caf87828801610b3a565b935050604085013567ffffffffffffffff811115610ccc57600080fd5b610cd887828801610b3a565b925050606085013567ffffffffffffffff811115610cf557600080fd5b610d0187828801610b3a565b91505092959194509250565b6000610d1882610fe5565b80845260208401935083602082028501610d3185610fcb565b60005b84811015610d6a578383038852610d4c838351610e1b565b9250610d5782611011565b9150602088019750600181019050610d34565b508196508694505050505092915050565b6000610d8682610ff0565b808452602084019350610d9883610fd8565b60005b82811015610dca57610dae868351610e51565b610db78261101e565b9150602086019550600181019050610d9b565b50849250505092915050565b610ddf8161102b565b82525050565b6000610df082611006565b808452610e0481602086016020860161105a565b610e0d8161108d565b602085010191505092915050565b6000610e2682610ffb565b808452610e3a81602086016020860161105a565b610e438161108d565b602085010191505092915050565b610e5a81611037565b82525050565b60006020820190508181036000830152610e7a8184610d7b565b905092915050565b6000602082019050610e976000830184610dd6565b92915050565b60006020820190508181036000830152610eb78184610de5565b905092915050565b60006060820190508181036000830152610ed98186610de5565b90508181036020830152610eed8185610de5565b90508181036040830152610f018184610d0d565b9050949350505050565b60006060820190508181036000830152610f258186610e1b565b90508181036020830152610f398185610e1b565b90508181036040830152610f4d8184610e1b565b9050949350505050565b6000602082019050610f6c6000830184610e51565b92915050565b6000604051905081810181811067ffffffffffffffff82111715610f9557600080fd5b8060405250919050565b600067ffffffffffffffff821115610fb657600080fd5b601f19601f8301169050602081019050919050565b6000602082019050919050565b6000602082019050919050565b600081519050919050565b600081519050919050565b600081519050919050565b600081519050919050565b6000602082019050919050565b6000602082019050919050565b60008115159050919050565b6000819050919050565b6000819050919050565b82818337600083830152505050565b60005b8381101561107857808201518184015260208101905061105d565b83811115611087576000848401525b50505050565b6000601f19601f830116905091905056fea265627a7a7230582086c5155a58161f4a0e1d71d858262b3fe530272ccd0cc5c8891d6bc6bddd21016c6578706572696d656e74616cf50037",
  "source": "pragma solidity ^0.5.0;\npragma experimental ABIEncoderV2;\n\ncontract SSSDapp {\n    string ipfsHash;\n\n    function set(string memory _ipfsHash) public {\n        // writing (storing) the hash to the blockchain\n        ipfsHash = _ipfsHash;\n    }\n\n    function get() public view returns (string memory) {\n        // reading from the blockchain\n        return ipfsHash;\n    }\n    /*creat object that stores the following:\n    \n    1. user name * \n    2. email            set when user registers\n    3. password *\n    4. MyFiles // alterded when 1.user uploads file , stores the file hash(set) 2. user loggs in, returns ipfsHash(get)\n    5. SharedFiles // altered whenother users share files , user inputs shared file hashes here.\n     */\n\n    struct Users {\n        string userName;\n        string email;\n        string password;\n        string[] myFiles;\n        string[] sharedFiles;\n    }\n\n    mapping(uint256 => Users) public Profiles; // holds list of users\n    uint256[] public userProfiles;\n\n    //Seter functions (use methods.send)\n\n    // function to add users\n    function registerUser(\n        uint256 userID,\n        string memory _userName,\n        string memory _email,\n        string memory _password\n    ) public {\n        Users storage users = Profiles[userID];\n        users.userName = _userName;\n        users.email = _email;\n        users.password = _password;\n        userProfiles.push(userID);\n    }\n\n    // function to upload files\n    function uploadFile(uint256 _userID, string memory _Hash) public {\n        Profiles[_userID].myFiles.push(_Hash);\n    }\n\n    //function to share files\n    function sharedFile(uint256 _userID, string memory _Hash) public {\n        Profiles[_userID].sharedFiles.push(_Hash);\n    }\n\n    // getter functions (use methods.call)\n    // function to get number of users\n    function getUsersNumber() public view returns (uint256[] memory) {\n        return userProfiles;\n    }\n\n    //function get specific user\n    function getUser(uint256 userID)\n        public\n        view\n        returns (string memory, string memory, string[] memory)\n    {\n        return (\n            Profiles[userID].userName,\n            Profiles[userID].email,\n            Profiles[userID].myFiles\n        );\n    }\n    // Signing in function\n    function signIn(uint256 _userID, string memory _password)\n        public\n        returns (bool)\n    {\n        if (\n            keccak256(abi.encodePacked(Profiles[_userID].password)) ==\n            keccak256(abi.encodePacked(_password))\n        ) {\n            return true;\n        } else {\n            return false;\n        }\n\n    }\n\n}\n",
  "sourcePath": "/SSSDapp/src/contracts/SSSDapp.sol",
  "compiler": {
    "name": "solc",
    "version": "0.5.0+commit.1d4f565a.Emscripten.clang"
  },
  "schemaVersion": "3.0.2",
  "updatedAt": "2020-03-24T12:33:07.958Z",
  "devdoc": {
    "methods": {}
  },
  "userdoc": {
    "methods": {}
  }
}