{
  "contractName": "SSSDapp",
  "abi": [
    {
      "constant": true,
      "inputs": [
        {
          "name": "",
          "type": "uint256"
        }
      ],
      "name": "userProfiles",
      "outputs": [
        {
          "name": "",
          "type": "address"
        }
      ],
      "payable": false,
      "stateMutability": "view",
      "type": "function",
      "signature": "0x18d4a12d"
    },
    {
      "constant": true,
      "inputs": [
        {
          "name": "",
          "type": "address"
        }
      ],
      "name": "Profiles",
      "outputs": [
        {
          "name": "userName",
          "type": "string"
        },
        {
          "name": "email",
          "type": "string"
        },
        {
          "name": "password",
          "type": "string"
        }
      ],
      "payable": false,
      "stateMutability": "view",
      "type": "function",
      "signature": "0x45ffb23c"
    },
    {
      "constant": false,
      "inputs": [
        {
          "name": "_ipfsHash",
          "type": "string"
        }
      ],
      "name": "set",
      "outputs": [],
      "payable": false,
      "stateMutability": "nonpayable",
      "type": "function",
      "signature": "0x4ed3885e"
    },
    {
      "constant": true,
      "inputs": [],
      "name": "get",
      "outputs": [
        {
          "name": "",
          "type": "string"
        }
      ],
      "payable": false,
      "stateMutability": "view",
      "type": "function",
      "signature": "0x6d4ce63c"
    },
    {
      "constant": false,
      "inputs": [
        {
          "name": "userAddress",
          "type": "address"
        },
        {
          "name": "_userName",
          "type": "string"
        },
        {
          "name": "_email",
          "type": "string"
        },
        {
          "name": "_password",
          "type": "string"
        }
      ],
      "name": "registerUser",
      "outputs": [
        {
          "name": "",
          "type": "address"
        },
        {
          "name": "",
          "type": "string"
        }
      ],
      "payable": false,
      "stateMutability": "nonpayable",
      "type": "function",
      "signature": "0xfe69c296"
    },
    {
      "constant": false,
      "inputs": [
        {
          "name": "userAddress",
          "type": "address"
        },
        {
          "name": "_Hash",
          "type": "string"
        }
      ],
      "name": "uploadFile",
      "outputs": [],
      "payable": false,
      "stateMutability": "nonpayable",
      "type": "function",
      "signature": "0x67f72fa9"
    },
    {
      "constant": false,
      "inputs": [
        {
          "name": "userAddress",
          "type": "address"
        },
        {
          "name": "_Hash",
          "type": "string"
        }
      ],
      "name": "sharedFile",
      "outputs": [],
      "payable": false,
      "stateMutability": "nonpayable",
      "type": "function",
      "signature": "0xc78f9f8b"
    },
    {
      "constant": true,
      "inputs": [],
      "name": "getUsersNumber",
      "outputs": [
        {
          "name": "",
          "type": "address[]"
        }
      ],
      "payable": false,
      "stateMutability": "view",
      "type": "function",
      "signature": "0x7fe91239"
    },
    {
      "constant": true,
      "inputs": [
        {
          "name": "userAddress",
          "type": "address"
        }
      ],
      "name": "getUser",
      "outputs": [
        {
          "name": "",
          "type": "address"
        },
        {
          "name": "",
          "type": "string"
        },
        {
          "name": "",
          "type": "string"
        },
        {
          "name": "",
          "type": "string[]"
        }
      ],
      "payable": false,
      "stateMutability": "view",
      "type": "function",
      "signature": "0x6f77926b"
    },
    {
      "constant": false,
      "inputs": [
        {
          "name": "userAddress",
          "type": "address"
        },
        {
          "name": "_userName",
          "type": "string"
        },
        {
          "name": "_password",
          "type": "string"
        }
      ],
      "name": "signIn",
      "outputs": [
        {
          "name": "",
          "type": "string"
        }
      ],
      "payable": false,
      "stateMutability": "nonpayable",
      "type": "function",
      "signature": "0xeef0d8d7"
    }
  ],
  "bytecode": "0x608060405234801561001057600080fd5b506115ff806100206000396000f3fe6080604052600436106100a4576000357c0100000000000000000000000000000000000000000000000000000000900463ffffffff16806318d4a12d146100a957806345ffb23c146100e65780634ed3885e1461012557806367f72fa91461014e5780636d4ce63c146101775780636f77926b146101a25780637fe91239146101e2578063c78f9f8b1461020d578063eef0d8d714610236578063fe69c29614610273575b600080fd5b3480156100b557600080fd5b506100d060048036036100cb91908101906111c9565b6102b1565b6040516100dd9190611336565b60405180910390f35b3480156100f257600080fd5b5061010d60048036036101089190810190610fe1565b6102ef565b60405161011c9392919061141f565b60405180910390f35b34801561013157600080fd5b5061014c60048036036101479190810190611188565b6104e1565b005b34801561015a57600080fd5b506101756004803603610170919081019061100a565b6104fb565b005b34801561018357600080fd5b5061018c61057e565b60405161019991906113fd565b60405180910390f35b3480156101ae57600080fd5b506101c960048036036101c49190810190610fe1565b610620565b6040516101d99493929190611381565b60405180910390f35b3480156101ee57600080fd5b506101f7610918565b60405161020491906113db565b60405180910390f35b34801561021957600080fd5b50610234600480360361022f919081019061100a565b6109a6565b005b34801561024257600080fd5b5061025d6004803603610258919081019061105e565b610a29565b60405161026a91906113fd565b60405180910390f35b34801561027f57600080fd5b5061029a600480360361029591908101906110dd565b610d17565b6040516102a8929190611351565b60405180910390f35b6002818154811015156102c057fe5b906000526020600020016000915054906101000a900473ffffffffffffffffffffffffffffffffffffffff1681565b6001602052806000526040600020600091509050806000018054600181600116156101000203166002900480601f01602080910402602001604051908101604052809291908181526020018280546001816001161561010002031660029004801561039b5780601f106103705761010080835404028352916020019161039b565b820191906000526020600020905b81548152906001019060200180831161037e57829003601f168201915b505050505090806001018054600181600116156101000203166002900480601f0160208091040260200160405190810160405280929190818152602001828054600181600116156101000203166002900480156104395780601f1061040e57610100808354040283529160200191610439565b820191906000526020600020905b81548152906001019060200180831161041c57829003601f168201915b505050505090806002018054600181600116156101000203166002900480601f0160208091040260200160405190810160405280929190818152602001828054600181600116156101000203166002900480156104d75780601f106104ac576101008083540402835291602001916104d7565b820191906000526020600020905b8154815290600101906020018083116104ba57829003601f168201915b5050505050905083565b80600090805190602001906104f7929190610ebe565b5050565b600160008373ffffffffffffffffffffffffffffffffffffffff1673ffffffffffffffffffffffffffffffffffffffff168152602001908152602001600020600301819080600181540180825580915050906001820390600052602060002001600090919290919091509080519060200190610578929190610ebe565b50505050565b606060008054600181600116156101000203166002900480601f0160208091040260200160405190810160405280929190818152602001828054600181600116156101000203166002900480156106165780601f106105eb57610100808354040283529160200191610616565b820191906000526020600020905b8154815290600101906020018083116105f957829003601f168201915b5050505050905090565b6000606080606084600160008773ffffffffffffffffffffffffffffffffffffffff1673ffffffffffffffffffffffffffffffffffffffff168152602001908152602001600020600001600160008873ffffffffffffffffffffffffffffffffffffffff1673ffffffffffffffffffffffffffffffffffffffff168152602001908152602001600020600101600160008973ffffffffffffffffffffffffffffffffffffffff1673ffffffffffffffffffffffffffffffffffffffff168152602001908152602001600020600301828054600181600116156101000203166002900480601f0160208091040260200160405190810160405280929190818152602001828054600181600116156101000203166002900480156107835780601f1061075857610100808354040283529160200191610783565b820191906000526020600020905b81548152906001019060200180831161076657829003601f168201915b50505050509250818054600181600116156101000203166002900480601f01602080910402602001604051908101604052809291908181526020018280546001816001161561010002031660029004801561081f5780601f106107f45761010080835404028352916020019161081f565b820191906000526020600020905b81548152906001019060200180831161080257829003601f168201915b5050505050915080805480602002602001604051908101604052809291908181526020016000905b82821015610903578382906000526020600020018054600181600116156101000203166002900480601f0160208091040260200160405190810160405280929190818152602001828054600181600116156101000203166002900480156108ef5780601f106108c4576101008083540402835291602001916108ef565b820191906000526020600020905b8154815290600101906020018083116108d257829003601f168201915b505050505081526020019060010190610847565b50505050905093509350935093509193509193565b6060600280548060200260200160405190810160405280929190818152602001828054801561099c57602002820191906000526020600020905b8160009054906101000a900473ffffffffffffffffffffffffffffffffffffffff1673ffffffffffffffffffffffffffffffffffffffff1681526020019060010190808311610952575b5050505050905090565b600160008373ffffffffffffffffffffffffffffffffffffffff1673ffffffffffffffffffffffffffffffffffffffff168152602001908152602001600020600401819080600181540180825580915050906001820390600052602060002001600090919290919091509080519060200190610a23929190610ebe565b50505050565b6060826040516020018082805190602001908083835b602083101515610a645780518252602082019150602081019050602083039250610a3f565b6001836020036101000a03801982511681845116808217855250505050505090500191505060405160208183030381529060405280519060200120600160008673ffffffffffffffffffffffffffffffffffffffff1673ffffffffffffffffffffffffffffffffffffffff1681526020019081526020016000206000016040516020018082805460018160011615610100020316600290048015610b3f5780601f10610b1d576101008083540402835291820191610b3f565b820191906000526020600020905b815481529060010190602001808311610b2b575b5050915050604051602081830303815290604052805190602001201415610d0f57816040516020018082805190602001908083835b602083101515610b995780518252602082019150602081019050602083039250610b74565b6001836020036101000a03801982511681845116808217855250505050505090500191505060405160208183030381529060405280519060200120600160008673ffffffffffffffffffffffffffffffffffffffff1673ffffffffffffffffffffffffffffffffffffffff1681526020019081526020016000206002016040516020018082805460018160011615610100020316600290048015610c745780601f10610c52576101008083540402835291820191610c74565b820191906000526020600020905b815481529060010190602001808311610c60575b5050915050604051602081830303815290604052805190602001201415610cd2576040805190810160405280600e81526020017f616363657373206772616e7465640000000000000000000000000000000000008152509050610d10565b6040805190810160405280600e81526020017f206163636573732064656e6965640000000000000000000000000000000000008152509050610d10565b5b9392505050565b600060606000600160008873ffffffffffffffffffffffffffffffffffffffff1673ffffffffffffffffffffffffffffffffffffffff168152602001908152602001600020905085816000019080519060200190610d76929190610ebe565b5084816001019080519060200190610d8f929190610ebe565b5083816002019080519060200190610da8929190610ebe565b5060028790806001815401808255809150509060018203906000526020600020016000909192909190916101000a81548173ffffffffffffffffffffffffffffffffffffffff021916908373ffffffffffffffffffffffffffffffffffffffff160217905550508681600001808054600181600116156101000203166002900480601f016020809104026020016040519081016040528092919081815260200182805460018160011615610100020316600290048015610ea95780601f10610e7e57610100808354040283529160200191610ea9565b820191906000526020600020905b815481529060010190602001808311610e8c57829003601f168201915b50505050509050925092505094509492505050565b828054600181600116156101000203166002900490600052602060002090601f016020900481019282601f10610eff57805160ff1916838001178555610f2d565b82800160010185558215610f2d579182015b82811115610f2c578251825591602001919060010190610f11565b5b509050610f3a9190610f3e565b5090565b610f6091905b80821115610f5c576000816000905550600101610f44565b5090565b90565b6000610f6f8235611556565b905092915050565b600082601f8301121515610f8a57600080fd5b8135610f9d610f9882611498565b61146b565b91508082526020830160208301858383011115610fb957600080fd5b610fc4838284611572565b50505092915050565b6000610fd98235611568565b905092915050565b600060208284031215610ff357600080fd5b600061100184828501610f63565b91505092915050565b6000806040838503121561101d57600080fd5b600061102b85828601610f63565b925050602083013567ffffffffffffffff81111561104857600080fd5b61105485828601610f77565b9150509250929050565b60008060006060848603121561107357600080fd5b600061108186828701610f63565b935050602084013567ffffffffffffffff81111561109e57600080fd5b6110aa86828701610f77565b925050604084013567ffffffffffffffff8111156110c757600080fd5b6110d386828701610f77565b9150509250925092565b600080600080608085870312156110f357600080fd5b600061110187828801610f63565b945050602085013567ffffffffffffffff81111561111e57600080fd5b61112a87828801610f77565b935050604085013567ffffffffffffffff81111561114757600080fd5b61115387828801610f77565b925050606085013567ffffffffffffffff81111561117057600080fd5b61117c87828801610f77565b91505092959194509250565b60006020828403121561119a57600080fd5b600082013567ffffffffffffffff8111156111b457600080fd5b6111c084828501610f77565b91505092915050565b6000602082840312156111db57600080fd5b60006111e984828501610fcd565b91505092915050565b6111fb81611524565b82525050565b600061120c826114de565b80845260208401935061121e836114c4565b60005b82811015611250576112348683516111f2565b61123d8261150a565b9150602086019550600181019050611221565b50849250505092915050565b6000611267826114e9565b80845260208401935083602082028501611280856114d1565b60005b848110156112b957838303885261129b838351611300565b92506112a682611517565b9150602088019750600181019050611283565b508196508694505050505092915050565b60006112d5826114ff565b8084526112e9816020860160208601611581565b6112f2816115b4565b602085010191505092915050565b600061130b826114f4565b80845261131f816020860160208601611581565b611328816115b4565b602085010191505092915050565b600060208201905061134b60008301846111f2565b92915050565b600060408201905061136660008301856111f2565b818103602083015261137881846112ca565b90509392505050565b600060808201905061139660008301876111f2565b81810360208301526113a881866112ca565b905081810360408301526113bc81856112ca565b905081810360608301526113d0818461125c565b905095945050505050565b600060208201905081810360008301526113f58184611201565b905092915050565b6000602082019050818103600083015261141781846112ca565b905092915050565b600060608201905081810360008301526114398186611300565b9050818103602083015261144d8185611300565b905081810360408301526114618184611300565b9050949350505050565b6000604051905081810181811067ffffffffffffffff8211171561148e57600080fd5b8060405250919050565b600067ffffffffffffffff8211156114af57600080fd5b601f19601f8301169050602081019050919050565b6000602082019050919050565b6000602082019050919050565b600081519050919050565b600081519050919050565b600081519050919050565b600081519050919050565b6000602082019050919050565b6000602082019050919050565b600061152f82611536565b9050919050565b600073ffffffffffffffffffffffffffffffffffffffff82169050919050565b600061156182611536565b9050919050565b6000819050919050565b82818337600083830152505050565b60005b8381101561159f578082015181840152602081019050611584565b838111156115ae576000848401525b50505050565b6000601f19601f830116905091905056fea265627a7a72305820affb12c754a9f0ea9232a0efec4d836edf5bfcbc3d5c10436ef8fe82df3d687e6c6578706572696d656e74616cf50037",
  "source": "pragma solidity ^0.5.0;\npragma experimental ABIEncoderV2;\n\ncontract SSSDapp {\n    string ipfsHash;\n\n    function set(string memory _ipfsHash) public {\n        // writing (storing) the hash to the blockchain\n        ipfsHash = _ipfsHash;\n    }\n\n    function get() public view returns (string memory) {\n        // reading from the blockchain\n        return ipfsHash;\n    }\n    /*creat object that stores the following:\n    \n    1. user name * \n    2. email            set when user registers\n    3. password *\n    4. MyFiles // alterded when 1.user uploads file , stores the file hash(set) 2. user loggs in, returns ipfsHash(get)\n    5. SharedFiles // altered whenother users share files , user inputs shared file hashes here.\n     */\n\n    struct Users {\n        string userName;\n        string email;\n        string password;\n        string[] myFiles;\n        string[] sharedFiles;\n    }\n\n    mapping(address => Users) public Profiles; // holds list of users\n    address[] public userProfiles;\n\n    //Seter functions (use methods.send)\n\n    // function to add users\n    function registerUser(\n        address userAddress,\n        string memory _userName,\n        string memory _email,\n        string memory _password\n    ) public returns (address, string memory) {\n        Users storage users = Profiles[userAddress];\n        users.userName = _userName;\n        users.email = _email;\n        users.password = _password;\n        userProfiles.push(userAddress);\n        return (userAddress, users.userName);\n    }\n\n    // function to upload files\n    function uploadFile(address userAddress, string memory _Hash) public {\n        Profiles[userAddress].myFiles.push(_Hash);\n    }\n\n    //function to share files\n    function sharedFile(address userAddress, string memory _Hash) public {\n        Profiles[userAddress].sharedFiles.push(_Hash);\n    }\n\n    // getter functions (use methods.call)\n    // function to get number of users\n    function getUsersNumber() public view returns (address[] memory) {\n        return userProfiles;\n    }\n\n    //function get specific user\n    function getUser(address userAddress)\n        public\n        view\n        returns (address, string memory, string memory, string[] memory)\n    {\n        return (\n            userAddress,\n            Profiles[userAddress].userName,\n            Profiles[userAddress].email,\n            Profiles[userAddress].myFiles\n        );\n    }\n    // Signing in function\n    function signIn(\n        address userAddress,\n        string memory _userName,\n        string memory _password\n    ) public returns (string memory) {\n        if (\n            keccak256(abi.encodePacked(Profiles[userAddress].userName)) ==\n            keccak256(abi.encodePacked(_userName))\n        ) {\n            if (\n                keccak256(abi.encodePacked(Profiles[userAddress].password)) ==\n                keccak256(abi.encodePacked(_password))\n            ) {\n                return \"access granted\";\n            } else {\n                return \" access denied\";\n            }\n\n        }\n\n    }\n}\n",
  "sourcePath": "/SSSDapp/src/contracts/SSSDapp.sol",
  "compiler": {
    "name": "solc",
    "version": "0.5.0+commit.1d4f565a.Emscripten.clang"
  },
  "schemaVersion": "3.0.2",
  "updatedAt": "2020-03-29T12:38:41.070Z",
  "devdoc": {
    "methods": {}
  },
  "userdoc": {
    "methods": {}
  }
}