{
  "contractName": "StringUtils",
  "abi": [
    {
      "constant": false,
      "inputs": [
        {
          "name": "_a",
          "type": "string storage"
        },
        {
          "name": "_b",
          "type": "string"
        }
      ],
      "name": "compare",
      "outputs": [
        {
          "name": "",
          "type": "int256"
        }
      ],
      "payable": false,
      "stateMutability": "nonpayable",
      "type": "function"
    },
    {
      "constant": false,
      "inputs": [
        {
          "name": "_a",
          "type": "string storage"
        },
        {
          "name": "_b",
          "type": "string"
        }
      ],
      "name": "equal",
      "outputs": [
        {
          "name": "",
          "type": "bool"
        }
      ],
      "payable": false,
      "stateMutability": "nonpayable",
      "type": "function"
    }
  ],
  "bytecode": "0x61062b610030600b82828239805160001a6073146000811461002057610022565bfe5b5030600052607381538281f3fe7300000000000000000000000000000000000000003014608060405260043610610063576000357c0100000000000000000000000000000000000000000000000000000000900463ffffffff16806321701b9b1461006857806342a95681146100a5575b600080fd5b81801561007457600080fd5b5061008f600480360361008a91908101906104c1565b6100e2565b60405161009c9190610533565b60405180910390f35b8180156100b157600080fd5b506100cc60048036036100c791908101906104c1565b6100f8565b6040516100d9919061054e565b60405180910390f35b6000806100ef84846100f8565b14905092915050565b60006060838054600181600116156101000203166002900480601f0160208091040260200160405190810160405280929190818152602001828054600181600116156101000203166002900480156101915780601f1061016657610100808354040283529160200191610191565b820191906000526020600020905b81548152906001019060200180831161017457829003601f168201915b50505050509050606083905060008251905080825110156101b157815190505b60008090505b818110156103fd5782818151811015156101cd57fe5b9060200101517f010000000000000000000000000000000000000000000000000000000000000090047f0100000000000000000000000000000000000000000000000000000000000000027effffffffffffffffffffffffffffffffffffffffffffffffffffffffffffff1916848281518110151561024857fe5b9060200101517f010000000000000000000000000000000000000000000000000000000000000090047f0100000000000000000000000000000000000000000000000000000000000000027effffffffffffffffffffffffffffffffffffffffffffffffffffffffffffff191610156102e7577fffffffffffffffffffffffffffffffffffffffffffffffffffffffffffffffff945050505050610451565b82818151811015156102f557fe5b9060200101517f010000000000000000000000000000000000000000000000000000000000000090047f0100000000000000000000000000000000000000000000000000000000000000027effffffffffffffffffffffffffffffffffffffffffffffffffffffffffffff1916848281518110151561037057fe5b9060200101517f010000000000000000000000000000000000000000000000000000000000000090047f0100000000000000000000000000000000000000000000000000000000000000027effffffffffffffffffffffffffffffffffffffffffffffffffffffffffffff191611156103f0576001945050505050610451565b80806001019150506101b7565b50815183511015610433577fffffffffffffffffffffffffffffffffffffffffffffffffffffffffffffffff9350505050610451565b8151835111156104495760019350505050610451565b600093505050505b92915050565b600082601f830112151561046a57600080fd5b813561047d61047882610596565b610569565b9150808252602083016020830185838301111561049957600080fd5b6104a48382846105e2565b50505092915050565b60006104b982356105d8565b905092915050565b600080604083850312156104d457600080fd5b60006104e2858286016104ad565b925050602083013567ffffffffffffffff8111156104ff57600080fd5b61050b85828601610457565b9150509250929050565b61051e816105c2565b82525050565b61052d816105ce565b82525050565b60006020820190506105486000830184610515565b92915050565b60006020820190506105636000830184610524565b92915050565b6000604051905081810181811067ffffffffffffffff8211171561058c57600080fd5b8060405250919050565b600067ffffffffffffffff8211156105ad57600080fd5b601f19601f8301169050602081019050919050565b60008115159050919050565b6000819050919050565b6000819050919050565b8281833760008383015250505056fea265627a7a723058208fb3c3fd5b9984535588b189e53ec772dc03ed26ffea91e0237c62b83ca6b7c06c6578706572696d656e74616cf50037",
  "source": "pragma solidity ^0.5.0;\npragma experimental ABIEncoderV2;\n//import {StringUtils} from \"./stringUtils.sol\";\n\nlibrary StringUtils {\n    /// @dev Does a byte-by-byte lexicographical comparison of two strings.\n    /// @return a negative number if `_a` is smaller, zero if they are equal\n    /// and a positive numbe if `_b` is smaller.\n    function compare(string storage _a, string memory _b)\n        public\n        returns (int256)\n    {\n        bytes memory a = bytes(_a);\n        bytes memory b = bytes(_b);\n        uint256 minLength = a.length;\n        if (b.length < minLength) minLength = b.length;\n        //@todo unroll the loop into increments of 32 and do full 32 byte comparisons\n        for (uint256 i = 0; i < minLength; i++)\n            if (a[i] < b[i]) return -1;\n            else if (a[i] > b[i]) return 1;\n        if (a.length < b.length) return -1;\n        else if (a.length > b.length) return 1;\n        else return 0;\n    }\n    /// @dev Compares two strings and returns true iff they are equal.\n    function equal(string storage _a, string memory _b) public returns (bool) {\n        return compare(_a, _b) == 0;\n    }\n}\n\ncontract SSSDapp {\n    using StringUtils for *;\n    string ipfsHash;\n\n    function set(string memory _ipfsHash) public {\n        // writing (storing) the hash to the blockchain\n        ipfsHash = _ipfsHash;\n    }\n\n    function get() public view returns (string memory) {\n        // reading from the blockchain\n        return ipfsHash;\n    }\n    /*creat object that stores the following:\n    \n    1. user name * \n    2. email            set when user registers\n    3. password *\n    4. MyFiles // alterded when 1.user uploads file , stores the file hash(set) 2. user loggs in, returns ipfsHash(get)\n    5. SharedFiles // altered whenother users share files , user inputs shared file hashes here.\n     */\n\n    struct Users {\n        string userName;\n        string email;\n        string password;\n        string[] myFiles;\n        string[] sharedFiles;\n    }\n\n    mapping(uint256 => Users) public Profiles; // holds list of users\n    uint256[] public userProfiles;\n\n    //Seter functions (use methods.send)\n\n    // function to add users\n    function addUser(\n        uint256 userID,\n        string memory _userName,\n        string memory _email,\n        string memory _password\n    ) public {\n        Users storage users = Profiles[userID];\n        users.userName = _userName;\n        users.email = _email;\n        users.password = _password;\n        userProfiles.push(userID);\n    }\n\n    // function to upload files\n    function uploadFile(uint256 _userID, string memory _Hash) public {\n        Profiles[_userID].myFiles.push(_Hash);\n    }\n\n    //function to share files\n    function sharedFile(uint256 _userID, string memory _Hash) public {\n        Profiles[_userID].sharedFiles.push(_Hash);\n    }\n\n    // getter functions (use methods.call)\n    // function to get number of users\n    function getUsersNumber() public view returns (uint256[] memory) {\n        return userProfiles;\n    }\n\n    //function get specific user\n    function getUser(uint256 userID)\n        public\n        view\n        returns (string memory, string memory, string[] memory)\n    {\n        return (\n            Profiles[userID].userName,\n            Profiles[userID].email,\n            Profiles[userID].myFiles\n        );\n    }\n\n    // Signing in function\n    function signIn(uint256 _userID, string memory _password)\n        public\n        returns (bool)\n    {\n        if (StringUtils.equal(Profiles[_userID].password, _password)) {\n            return true;\n        }\n\n    }\n\n}\n",
  "sourcePath": "/SSSDapp/src/contracts/SSSDapp.sol",
  "compiler": {
    "name": "solc",
    "version": "0.5.0+commit.1d4f565a.Emscripten.clang"
  },
  "schemaVersion": "3.0.2",
  "updatedAt": "2020-03-23T15:03:41.050Z",
  "devdoc": {
    "methods": {
      "compare(string storage,string)": {
        "details": "Does a byte-by-byte lexicographical comparison of two strings.",
        "return": "a negative number if `_a` is smaller, zero if they are equal and a positive numbe if `_b` is smaller."
      },
      "equal(string storage,string)": {
        "details": "Compares two strings and returns true iff they are equal."
      }
    }
  },
  "userdoc": {
    "methods": {}
  }
}